:060000000A128A110C280F
:10000800FE00030EF0000A08F1000A128A11042902
:100018000A128A110F2883010A128A1113280A1258
:100028008A115B200A128A110A128A11CD200A123B
:100038008A110230F6007608F40001300A128A119B
:100048009D200A128A1101300A128A117E200A1292
:100058008A110630F6007608F40001300A128A1177
:100068009D200A128A1104300A128A117E200A126F
:100078008A110B30F6007608F40001300A128A1152
:100088009D200A128A1107300A128A117E200A124C
:100098008A110230F6007608F40002300A128A113A
:1000A8009D200A128A111D280A128A110C2883120F
:1000B800031387100710880183160313871007108E
:1000C800880138300A128A11EC200A128A110C3081
:1000D8000A128A11EC200A128A1101300A128A11B6
:1000E800EC200A128A1106300A128A11EC200A1230
:1000F8008A110800F5009028750884000A128A11F0
:10010800DD200A128A110A128A11F8200A128A11AD
:100118000130F4007408F507750884000A128A1182
:10012800DD200A128A11003A031D9B289C2880288A
:100138000800F5007503031DA228A328AA2874083F
:100148007F3E0A128A11EC200A128A1102307506C3
:10015800031DAF28B028B7287408BF3E0A128A11B9
:10016800EC200A128A110800831203138714C7307F
:10017800F200BE28F20BBD28C128C228831203133F
:100188008710C730F200C828F20BC728CB28CC2824
:10019800080001300A128A11EC200A128A110B3069
:1001A800F5006230F400F40BD728F50BD7280000CF
:1001B800080000308A000408840A82070034533497
:1001C800313400345334323400345334333400344B
:1001D800F300831203130710730888000A128A11A8
:1001E800B8200A128A110800F300831203130714B7
:1001F800730888000A128A11B8200A128A110800A6
:0E02080071088A00700E8300FE0E7E0E090043
:04400E00D420FF3F7C
:00000001FF
