:060000000A128A110C280F
:10000800FE00030EF1000A08F2000A128A117F2C82
:100018000A128A110F28F801F901FA0183134230F4
:1000280084005A300A128A11BC240A128A118301E8
:100038000A128A117F2A83120313B8002A30B000EB
:100048003008B300F2282530390603192C282D284A
:1000580039283908B0003808840030088313800034
:100068000130B0003008B807F228B4010130A90700
:10007800FF30290784000A128A1193230A128A1171
:10008800B900B000B1013108003A03194C28F22830
:100098003008003A03190429643A031957280D3A1D
:1000A80003195728F2283308840083130008B60080
:1000B800840A0008B7000230B0003008B307B71F41
:1000C8006628672870280330B0003008B404B609E1
:1000D800B709B60A0319B70AB901B90A3908B0004D
:1000E8003007013E84000A128A1193230A128A11EA
:1000F800B1000A128A1193230A128A11B200320837
:100108003702031D89283108360203188C288D28E8
:100118008E2898280130B0003008B9070530390614
:10012800031D9728982872283408033903199D2835
:100138009E28A9282D30B000380884003008831381
:1001480080000130B0003008B8073908B000300826
:10015800B500E9280A30A3000030A4003508B00033
:100168003007013E84000A128A1193230A128A1169
:10017800F3000A128A1193230A128A11F40037082D
:10018800F6003608F5000A128A11CC220A128A11E2
:10019800740883120313A6007308A5000A128A11B3
:1001A80012230A128A11831203132308303EB10066
:1001B8003108B9003908B0003808840030088313C2
:1001C80080000130B0003008B807FF30B0003008B8
:1001D800B507350A031DF128F228AE280130A90712
:1001E800FF30290784000A128A1193230A128A1100
:1001F800B0003008B9003908031D0329042927284D
:100208003808840083138001080083120313A101B6
:10021800F41F0F2910291729F309F409F30A031900
:10022800F40AA101A10AF61F1A291B292429F50994
:10023800F609F50A0319F60A0130F7007708A1064E
:10024800A201A3017308740403192B292C2963291B
:10025800A001A00A3A2901300310F30DF40DFF3E66
:10026800031D30290130F7007708A007F41F3D2946
:100278003E292F2901300310A20DA30DFF3E031DB7
:100288003F2974087602031D4B2973087502031C65
:100298004E294F2956297308F5027408031CF603E2
:1002A800F602221401300310F40CF30CFF3E031D78
:1002B80057290130A002031D622963293E2921081C
:1002C8000319672968296D29A209A309A20A031934
:1002D800A30A2308F4002208F30008005930831207
:1002E8000313BA003A08A40043080A128A11282204
:1002F8000A128A111C3083120313BA003A08A900A3
:100308005B08BB00BC013B08AA003C08AB005A08CC
:10031800BD00BE013D08AC003E08AD005908BF0055
:10032800C0013F08AE004008AF004E300A128A11E3
:100338001F200A128A11583083120313BA003A0890
:10034800A40042080A128A1128220A128A111C30B3
:1003580083120313BA003A08A9005A08BB00BC016B
:100368003B08AA003C08AB005908BD00BE013D0887
:10037800AC003E08AD005808BF00C0013F08AE0001
:100388004008AF0044300A128A111F200A128A114D
:10039800080083120313A101F61FD329D429DB29EE
:1003A800F509F609F50A0319F60AA101A10AF41FCD
:1003B800DE29DF29E429F309F409F30A0319F40A09
:1003C800730874040319E929EA29192AA001A00A63
:1003D800F82901300310F30DF40DFF3E031DEE293B
:1003E8000130F7007708A007F41FFB29FC29ED2945
:1003F80074087602031D022A73087502031C052A75
:10040800062A0C2A7308F5027408031CF603F60280
:1004180001300310F40CF30CFF3E031D0D2A0130CC
:10042800A002031D182A192AFC29210803191D2ACC
:100438001E2A232AF509F609F50A0319F60A760889
:10044800F4007508F300080083120313A7002708B7
:10045800A500A6010310250DA800260DA900AA01D4
:10046800AB010A30F3000030F400831203132908AB
:10047800F6002808F5000A128A11CD210A128A11FD
:10048800730883120313A5002A082407A600260868
:1004980084002508831380000A30F3000030F4003C
:1004A8002A082407A5002508840000082802F5006A
:1004B8002908031C2903F6000A128A1109210A12C5
:1004C8008A11740883120313A9007308A800013065
:1004D800AA070318AB0A0030AB072B08803AFF00C5
:1004E80080307F02031D7A2A03302A02031C7D2AEA
:1004F8007E2A352A08000A128A114E230A128A1106
:10050800831203139F140A128A11BC230A128A1138
:10051800F501F50A01300A128A114F240A128A11CC
:100528000B30F5008030F6000A128A11E8230A120F
:100538008A110A128A1172210A128A11F501F50A22
:1005480002300A128A114F240A128A114E30F5001D
:100558000030F6000A128A11E8230A128A110730BD
:1005680083120313C1004108F50002300A128A11F0
:100578004F240A128A114430F5000030F6000A129E
:100588008A11E8230A128A11872A0A128A110C286A
:1005980083120313A101A201730874040319D52A55
:1005A800D62A0D2BA001A00AE42A01300310F30D6E
:1005B800F40DFF3E031DDA2A0130F7007708A00783
:1005C800F41FE72AE82AD92A01300310A10DA20D49
:1005D800FF3E031DE92A74087602031DF52A7308F5
:1005E8007502031CF82AF92A002B7308F50274080F
:1005F800031CF603F602211401300310F40CF30C6B
:10060800FF3E031D012B0130A002031D0C2B0D2BF7
:10061800E82A2208F4002108F300080083120313D3
:10062800230824040319192B1A2B492BA801A80AFB
:10063800282B01300310A30DA40DFF3E031D1E2B14
:100648000130A7002708A807A41F2B2B2C2B1D2B34
:1006580024082602031D322B23082502031C352BF0
:10066800362B3C2B2308A5022408031CA603A6024C
:1006780001300310A40CA30CFF3E031D3D2B0130D9
:10068800A802031D482B492B2C2B2608A40025085B
:10069800A30008000330831603178800890103307C
:1006A80083160313850086018901831203138501CC
:1006B80089018601831603130F088F3960388F006C
:1006C8000F149F131F129F12831203131F083F3921
:1006D80040389F00C3309F051F141030F700F70BF8
:1006E800732B0000831203130C13831603130C17C8
:1006F8000B178B170A128A110E240A128A110A1272
:100708008A1194240A128A110800FF1B932B831361
:100718007F1883170008840A0319FF0A08000330AA
:100728008A000408840A82070034013400340A3439
:10073800003464340034E834033410342734533438
:1007480031343A3420342034203420345334323491
:100758003A34203420342034533433343A34003497
:10076800253464342E342534643425346434003418
:10077800831203139F18C12BC22BE72B1F0CF30006
:10078800730C0F39013A031DCA2BCB2BD22BC33064
:100798009F052130F300F30BCF2BE02B1F0CF30048
:1007A800730C0F39003A031DDA2BDB2BE02B1F08E3
:1007B800C33904389F00CD2B2130F300F30BE22B13
:1007C800831203139F140800FD2B7608FF00750899
:1007D80084000A128A1189230A128A110A128A11BC
:1007E800B0240A128A110130F5070318F60A0030FE
:1007F800F607760883120313FF00750884000A12AF
:100808008A1189230A128A11003A031D0C2C0D2C17
:10081800E92B080083120313871007108801831639
:10082800031387100710880138300A128A11A4248C
:100838000A128A110C300A128A11A4240A128A1187
:1008480001300A128A11A4240A128A1106300A12E7
:100858008A11A4240A128A110800831203131F0C98
:10086800F000700C0F39003A031D3B2C3C2C412C36
:100878001E08F0007008C3004E2C1F0CF000700C0E
:100888000F39013A031D492C4A2C4E2C1E08F00042
:100898007008C2000800F6007603031D542C552C7E
:1008A8005C2C75087F3E0A128A11A4240A128A1148
:1008B80002307606031D612C622C692C7508BF3E38
:1008C8000A128A11A4240A128A1108008312031337
:1008D8008714C730F300702CF30B6F2C732C742C17
:1008E800831203138710C730F3007A2CF30B792C8B
:1008F8007D2C7E2C0800831203130C1F842C852C5E
:100908008D2C0A128A1131240A128A1183120313B8
:100918000C1372088A00710E8300FE0E7E0E090009
:1009280001300A128A11A4240A128A110B30F60027
:100938006230F500F50B9E2CF60B9E2C000008008B
:10094800F400831203130710740888000A128A112E
:100958006A240A128A110800F40083120313071488
:10096800740888000A128A116A240A128A11080077
:1009780064008001840A0406031900340406BD2CAF
:04400E00D420FF3F7C
:00000001FF
