:060000000A128A110C280F
:10000800FE00030EF0000A08F1000A128A112329E3
:100018000A128A110F2883010A128A1113280A1258
:100028008A116A200A128A110A128A11FB200A12FE
:100038008A11F401F40A01300A128A11CB200A123B
:100048008A110B300A128A11AC200A128A11F401A3
:10005800F40A02300A128A11CB200A128A111430CB
:100068000A128A11AC200A128A110230F8000430F0
:10007800F700BA30F600F60B3F28F70B3F28F80BCD
:100088003F2800000A128A11FB200A128A11F40183
:10009800F40A01300A128A11CB200A128A1101309F
:1000A8000A128A11AC200A128A110230F8000430B0
:1000B800F700BA30F600F60B5F28F70B5F28F80B4D
:1000C8005F28000018280A128A110C2883120313CB
:1000D80087100710880183160313871007108801FB
:1000E80038300A128A110B210A128A110C300A12AE
:1000F8008A110B210A128A1101300A128A110B2166
:100108000A128A1106300A128A110B210A128A1160
:10011800080000308A000408840A820700344C343E
:100128006C346534673475346534213421342134B2
:10013800003448346F346C34613473342034783488
:100148003134003448346F346C34613473340034DF
:10015800F500BE28750884000A128A118D200A123B
:100168008A110A128A1117210A128A110130F40021
:100178007408F507750884000A128A118D200A127E
:100188008A11003A031DC928CA28AE280800F500BC
:100198007503031DD028D128D82874087F3E0A1279
:1001A8008A110B210A128A1102307506031DDD28F7
:1001B800DE28E5287408BF3E0A128A110B210A12AC
:1001C8008A110800831203138714C730F200EC2841
:1001D800F20BEB28EF28F028831203138710C7309F
:1001E800F200F628F20BF528F928FA280800013061
:1001F8000A128A110B210A128A110B30F50062309B
:10020800F400F40B0529F50B052900000800F3009C
:10021800831203130710730888000A128A11E62054
:100228000A128A110800F3008312031307147308D3
:1002380088000A128A11E6200A128A110800710839
:0C0248008A00700E8300FE0E7E0E09007E
:04400E00D420FF3F7C
:00000001FF
