:060000000A128A110C280F
:10000800FE00030EF0000A08F1000A128A11B8284F
:100018000A128A110F2883010A128A116A28831288
:10002800031387100710880183160313871007101E
:10003800880138300A128A11A0200A128A110C305D
:100048000A128A11A0200A128A1101300A128A1192
:10005800A0200A128A1106300A128A11A0200A1258
:100068008A110800F5004828750884000A128A11C8
:100078007E200A128A110A128A11AC200A128A11E9
:100088000130F4007408F507750884000A128A1113
:100098007E200A128A11003A031D53285428382852
:1000A8000800831203138714C730F2005B28F20B91
:1000B8005A285E285F28831203138710C730F2007E
:1000C8006528F20B64286828692808000A128A1132
:1000D80013200A128A110A128A1190200A128A1110
:1000E80001300A128A1136200A128A117A280A1255
:1000F8008A110C2800308A000408840A8207003418
:1001080048346F346C34613420346D3475346E3453
:1001180064346F342134003401300A128A11A0206B
:100128000A128A110B30F5006230F400F40B9A2899
:10013800F50B9A2800000800F30083120313071038
:10014800730888000A128A1155200A128A110800B9
:10015800F300831203130714730888000A128A1124
:1001680055200A128A11080071088A00700E83004F
:06017800FE0E7E0E0900E0
:04400E00D420FF3F7C
:00000001FF
