:060000000A128A110C280F
:10000800FE00030EF2000A08F3000A128A11EA2C15
:100018000A128A110F28F701F801F9018313203019
:10002800840045300A128A1146250A128A11830172
:100038000A128A11092983120313DF005130D700ED
:100048005708DA00F2282530600603192C282D28D5
:1000580039286008D7005F08840057088313800098
:100068000130D7005708DF07F228DB010130D0073D
:10007800FF30500784000A128A110D240A128A11CF
:10008800E000D700D8015808003A03194C28F22894
:100098005708003A03190429643A031957280D3AF6
:1000A80003195728F2285A08840083130008DD0032
:1000B800840A0008DE000230D7005708DA07DE1F7E
:1000C8006628672870280330D7005708DB04DD0945
:1000D800DE09DD0A0319DE0AE001E00A6008D7003C
:1000E8005707013E84000A128A110D240A128A1148
:1000F800D8000A128A110D240A128A11D900590847
:100108005E02031D892858085D0203188C288D2873
:100118008E2898280130D7005708E0070530600678
:10012800031D9728982872285B08033903199D280E
:100138009E28A9282D30D7005F088400570883130C
:1001480080000130D7005708DF076008D70057083C
:10015800DC00E9280A30CC000030CD005C08D7006C
:100168005707013E84000A128A110D240A128A11C7
:10017800C5000A128A110D240A128A11C6005E08E7
:10018800C8005D08C7000A128A1141230A128A11A1
:10019800831203134608CF004508CE000A128A11BD
:1001A800C7230A128A11831203134C08303ED80061
:1001B8005808E0006008D7005F08840057088313D8
:1001C80080000130D7005708DF07FF30D7005708F5
:1001D800DC075C0A031DF128F228AE280130D0079D
:1001E800FF30500784000A128A110D240A128A115E
:1001F800D7005708E0006008031D032904292728B1
:100208005F0884008313800108000A128A11EE2215
:100218000A128A11831203139F140A128A113624B0
:100228000A128A11F601F60A01300A128A11AD245F
:100238000A128A110B3083120313C5008030C600DE
:100248000A128A1162240A128A110A128A11E121F9
:100258000A128A11F601F60A02300A128A11AD242E
:100268000A128A11383083120313C5000030C60001
:100278000A128A1162240A128A11073083120313A0
:10028800E8006808F60002300A128A11AD240A1242
:100298008A112E3083120313C5000030C6000A12DB
:1002A8008A1162240A128A110A128A1187230A12F1
:1002B8008A110D3083120313E8006808F600023033
:1002C8000A128A11AD240A128A11243083120313E8
:1002D800C5000030C6000A128A1162240A128A1167
:1002E80011290A128A110C2883120313CA01C61F86
:1002F8007E297F298629C509C609C50A0319C60AA0
:10030800CA01CA0AC81F89298A299329C709C8099D
:10031800C70A0319C80A0130F4007408CA06CB01D9
:10032800CC014508460403199A299B29D229C901F9
:10033800C90AA92901300310C50DC60DFF3E031DCA
:100348009F290130F4007408C907C61FAC29AD29DC
:100358009E2901300310CB0DCC0DFF3E031DAE29A5
:1003680046084802031DBA2945084702031CBD294F
:10037800BE29C5294508C7024608031CC803C80288
:100388004B1401300310C60CC50CFF3E031DC629D3
:100398000130C902031DD129D229AD294A08031900
:1003A800D629D729DC29CB09CC09CB0A0319CC0AD1
:1003B8004C08C6004B08C5000800443083120313DC
:1003C800E1006108CD0023080A128A1197220A1257
:1003D8008A111C3083120313E1006108D00046081B
:1003E800E200E3016208D1006308D2004508E40096
:1003F800E5016408D3006508D4004408E600E70175
:100408006608D5006708D60038300A128A111F20FE
:100418000A128A11433083120313E1006108CD00E8
:1004280022080A128A1197220A128A111C30831292
:100438000313E1006108D0004508E200E301620807
:10044800D1006308D2004408E400E5016408D30041
:100458006508D4004308E600E7016608D500670888
:10046800D6002E300A128A111F200A128A1108009B
:10047800F60183120313C81F422A432A4A2AC709CE
:10048800C809C70A0319C80AF601F60AC61F4D2A81
:100498004E2A532AC509C609C50A0319C60A4508BA
:1004A80046040319582A592A882AF501F50A672AA1
:1004B80001300310C50DC60DFF3E031D5D2A013036
:1004C800F4007408F507C61F6A2A6B2A5C2A4608D6
:1004D8004802031D712A45084702031C742A752A1D
:1004E8007B2A4508C7024608031CC803C802013016
:1004F8000310C60CC50CFF3E031D7C2A0130F50213
:10050800031D872A882A6B2A760803198C2A8D2AC4
:10051800922AC709C809C70A0319C80A4808C600A1
:100528004708C500080083120313D0005008CE0006
:10053800CF0103104E0DD1004F0DD200D301D401CD
:100548000A3083120313C5000030C6005208C800E1
:100558005108C7000A128A113C220A128A11831212
:1005680003134508CE0053084D07CF004F088400F9
:100578004E08831380000A30C5000030C6005308B7
:100588004D07CE004E08840000085102C7005208EB
:10059800031C5203C8000A128A1178210A128A1110
:1005A800831203134608D2004508D1000130D3074F
:1005B8000318D40A0030D4075408803AFF0080306A
:1005C8007F02031DE92A03305302031CEC2AED2A9B
:1005D800A42A080003308316031788008901033012
:1005E800831603138500860189018312031385018D
:1005F80089018601831603130F088F3960388F002D
:100608000F149F131F129F12831203131F083F39E1
:1006180040389F00C3309F051F141030F600F60BBA
:10062800132B0000831203130C13831603130C17E8
:10063800831203138C12831603138C160B178B1754
:10064800181218158316031787111730831603130A
:1006580099009A0183120313981718131816831612
:10066800031398160A128A118A240A128A110A1286
:100678008A111C250A128A11080083120313CA0161
:10068800CB014508460403194A2B4B2B822BC90181
:10069800C90A592B01300310C50DC60DFF3E031DB5
:1006A8004F2B0130F4007408C907C61F5C2B5D2B63
:1006B8004E2B01300310CA0DCB0DFF3E031D5E2BE0
:1006C80046084802031D6A2B45084702031C6D2B88
:1006D8006E2B752B4508C7024608031CC803C802C1
:1006E8004A1401300310C60CC50CFF3E031D762BBF
:1006F8000130C902031D812B822B5D2B4B08C600DC
:100708004A08C50008004B30831203132106031D55
:100718008E2B8F2B932B0130E1006108A0074D3001
:100728002106031D982B992B9B2B0130A0024230E8
:10073800E1006108CD0020080A128A1197220A12E6
:100748008A111C3083120313E1006108D0004408A9
:10075800E200E3016208D1006308D2004308E40024
:10076800E5016408D3006508D4004208E600E70103
:100778006608D5006708D60024300A128A111F209F
:100788000A128A110800831203134C084D04031936
:10079800CE2BCF2BFE2BF601F60ADD2B01300310F2
:1007A800CC0DCD0DFF3E031DD32B0130F500750890
:1007B800F607CD1FE02BE12BD22B4D084F02031D6E
:1007C800E72B4C084E02031CEA2BEB2BF12B4C08B1
:1007D800CE024D08031CCF03CF0201300310CD0C0D
:1007E800CC0CFF3E031DF22B0130F602031DFD2B3E
:1007F800FE2BE12B4F08CD004E08CC000800FF1B54
:100808000D2C83137F1883170008840A0319FF0A25
:10081800080004308A000408840A8207003401347E
:1008280000340A34003464340034E83403341034B7
:100838002734533431343A342034203420342034AB
:10084800533432343A34203420342034533433345B
:100858003A340034253464342E3425346434253451
:1008680064340034831203139F183B2C3C2C612CF6
:100878001F0CF400740C0F39013A031D442C452C4D
:100888004C2CC3309F052130F400F40B492C5A2C12
:100898001F0CF400740C0F39003A031D542C552C0E
:1008A8005A2C1F08C33904389F00472C2130F40004
:1008B800F40B5C2C831203139F140800792C460850
:1008C800FF00450884000A128A1103240A128A11BB
:1008D8000A128A113A250A128A1101308312031367
:1008E800C5070318C60A0030C60783120313460853
:1008F800FF00450884000A128A1103240A128A118B
:10090800003A031D882C892C632C080083120313DA
:1009180087100710880183160313871007108801B2
:1009280038300A128A112E250A128A110C300A123E
:100938008A112E250A128A1101300A128A112E25CF
:100948000A128A1106300A128A112E250A128A11F1
:10095800080083120313C5004503031DB42CB52CEE
:10096800BC2C76087F3E0A128A112E250A128A119B
:100978000230831203134506031DC32CC42CCB2C51
:100988007608BF3E0A128A112E250A128A1108001B
:10099800831203131F0CF000700C0F39003A031D6B
:1009A800D62CD72CDC2C1E08F0007008A300E92CEC
:1009B8001F0CF000700C0F39013A031DE42CE52CD4
:1009C800E92C1E08F0007008A20008008312031327
:1009D8000C1FEF2CF02CF82C0A128A11CC240A12C6
:1009E8008A11831203130C138C1EFB2CFC2C002D74
:1009F8001A08F1007108A10073088A00720E8300BA
:100A0800FE0E7E0E0900831203138714C730F4000C
:100A18000D2DF40B0C2D102D112D8312031387109F
:100A2800C730F400172DF40B162D1A2D1B2D0800B6
:100A380001300A128A112E250A128A110B308312EC
:100A48000313C6006130C500C50B282DC60B282D21
:100A58002D2D0800F5008312031307107508880070
:100A68000A128A1107250A128A110800F500831252
:100A780003130714750888000A128A1107250A1239
:100A88008A11080064008001840A040603190034EE
:040A98000406472DDC
:04400E00D420FF3F7C
:00000001FF
