:060000000A128A110C280F
:10000800FE00030EF2000A08F3000A128A116C2C93
:100018000A128A110F28F601F701F801F901831372
:100028004530840069300A128A116D250A128A1136
:1000380083010A128A117E2983120313BB002D3013
:10004800B3003308B600F32825303C0603192D28E1
:100058002E283A283C08B3003B0884003308831351
:1000680080000130B3003308BB07F328B701013023
:10007800AC07FF302C0784000A128A1143240A12A5
:100088008A11BC00B300B4013408003A03194D28A2
:10009800F3283308003A03190529643A0319582844
:1000A8000D3A03195828F3283608840083130008EA
:1000B800B900840A0008BA000230B3003308B60752
:1000C800BA1F6728682871280330B3003308B704BB
:1000D800B909BA09B90A0319BA0ABC01BC0A3C0829
:1000E800B3003307013E84000A128A1143240A121E
:1000F8008A11B4000A128A1143240A128A11B5001F
:1001080035083A02031D8A283408390203188D2855
:100118008E288F2899280130B3003308BC07053092
:100128003C06031D982899287328370803390319B2
:100138009E289F28AA282D30B3003B088400330846
:10014800831380000130B3003308BB073C08B300B9
:100158003308B800EA280A30A7000030A800380899
:10016800B3003307013E84000A128A1143240A129D
:100178008A11A0000A128A1143240A128A11A100C6
:100188003A08A3003908A2000A128A11B7230A12F2
:100198008A11831203132108AA002008A9000A1251
:1001A8008A11FD230A128A11831203132708303E8D
:1001B800B4003408BC003C08B3003B088400330892
:1001C800831380000130B3003308BB07FF30B3004E
:1001D8003308B807380A031DF228F328AF2801307E
:1001E800AC07FF302C0784000A128A1143240A1234
:1001F8008A11B3003308BC003C08031D04290529F3
:1002080028283B0884008313800108008312031305
:1002180007100711253083120313A1005B30A000DB
:10022800A00B1429A10B142930300A128A11612558
:100238000A128A110B3083120313A1006130A00047
:10024800A00B2429A10B2429292930300A128A114C
:1002580061250A128A11413083120313A000A00BF2
:100268003329362930300A128A1161250A128A1177
:10027800413083120313A000A00B402943293830D2
:100288000A128A1161250A128A1141308312031356
:10029800A000A00B4D29502908300A128A116125A7
:1002A8000A128A11413083120313A000A00B5A29A5
:1002B8005D2901300A128A1161250A128A1141301A
:1002C80083120313A000A00B67296A2906300A12BB
:1002D8008A1161250A128A11413083120313A00082
:1002E800A00B742977290C300A128A1161250A1289
:1002F8008A1108000A128A1167230A128A118312C6
:1003080003139F140A128A119B240A128A1183125A
:100318000313A001A00A01300A128A11EF240A125D
:100328008A110B3083120313A0008030A1000A1237
:100338008A11C7240A128A110A128A115A220A1229
:100348008A1183120313A001A00A02300A128A112B
:10035800EF240A128A115D3083120313A0000030C3
:10036800A1000A128A11C7240A128A1107308312BF
:100378000313C4004408A00002300A128A11EF24B3
:100388000A128A11533083120313A0000030A1000F
:100398000A128A11C7240A128A110A128A114125DF
:1003A8000A128A110E3083120313C4004408A000F5
:1003B80002300A128A11EF240A128A114930831274
:1003C8000313A0000030A1000A128A11C7240A12E0
:1003D8008A1186290A128A110C2883120313A5018F
:1003E800A11FF729F829FF29A009A109A00A0319C3
:1003F800A10AA501A50AA31F022A032A0C2AA209F9
:10040800A309A20A0319A30A0130F4007408A50677
:10041800A601A701200821040319132A142A4B2A2C
:10042800A401A40A222A01300310A00DA10DFF3E49
:10043800031D182A0130F4007408A407A11F252AF7
:10044800262A172A01300310A60DA70DFF3E031D0B
:10045800272A21082302031D332A20082202031C0D
:10046800362A372A3E2A2008A2022108031CA303A1
:10047800A302261401300310A10CA00CFF3E031D9B
:100488003F2A0130A402031D4A2A4B2A262A25089E
:1004980003194F2A502A552AA609A709A60A03199B
:1004A800A70A2708A1002608A000080068308312C0
:1004B8000313BD003D08F50048080A128A111023ED
:1004C8000A128A111C3083120313BD003D08AC00C8
:1004D8006A08BE00BF013E08AD003F08AE006908CB
:1004E800C000C1014008AF004108B0006808C20060
:1004F800C3014208B1004308B2005D300A128A11F4
:1005080020200A128A11673083120313BD003D08A8
:10051800F50047080A128A1110230A128A111C30A2
:1005280083120313BD003D08AC006908BE00BF017B
:100538003E08AD003F08AE006808C000C101400891
:10054800AF004108B0006708C200C3014208B1000B
:100558004308B20053300A128A1120200A128A1165
:10056800080083120313A501A31FBB2ABC2AC32AB0
:10057800A209A309A20A0319A30AA501A50AA11F92
:10058800C62AC72ACC2AA009A109A00A0319A10AC8
:10059800200821040319D12AD22A012BA401A40A74
:1005A800E02A01300310A00DA10DFF3E031DD62A3D
:1005B8000130F4007408A407A11FE32AE42AD52A0D
:1005C80021082302031DEA2A20082202031CED2A1F
:1005D800EE2AF42A2008A2022108031CA303A3027E
:1005E80001300310A10CA00CFF3E031DF52A0130B9
:1005F800A402031D002B012BE42A25080319052B4F
:10060800062B0B2BA209A309A20A0319A30A230884
:10061800A1002208A000080083120313AA002A08D8
:10062800A800A9010310280DAB00290DAC00AD01ED
:10063800AE010A3083120313A0000030A1002C0879
:10064800A3002B08A2000A128A11B5220A128A11E5
:10065800831203132008A8002D087507A90029088C
:1006680084002808831380000A30A0000030A1000D
:100678002D087507A8002808840000082B02A2008E
:100688002C08031C2C03A3000A128A11F1210A1258
:100698008A11831203132108AC002008AB00013033
:1006A800AD070318AE0A0030AE072E08803AFF00E7
:1006B80080307F02031D622B03302D02031C652B43
:1006C800662B1D2B08000330831603178800890149
:1006D80003308316031385008601890183120313EF
:1006E800850189018601831603130F088F39603845
:1006F8008F000F149F131F129F12831203131F08DA
:100708003F3940389F00C3309F051F140F308312B4
:100718000313A200A20B8E2B912B831203130C132D
:10072800831603130C17831203138C1283160313F7
:100738008C160B178B1718121815831603178711A9
:1007480017308316031399009A018312031398171D
:10075800181318168316031398160A128A110A21F9
:100768000A128A11080083120313A501A6012008A2
:1007780021040319C02BC12BF82BA401A40ACF2BE9
:1007880001300310A00DA10DFF3E031DC52B013044
:10079800F4007408A407A11FD22BD32BC42B01305B
:1007A8000310A50DA60DFF3E031DD42B210823021F
:1007B800031DE02B20082202031CE32BE42BEB2B68
:1007C8002008A2022108031CA303A3022514013058
:1007D8000310A10CA00CFF3E031DEC2B0130A4025A
:1007E800031DF72BF82BD32B2608A1002508A00002
:1007F800080083120313270828040319042C052C66
:10080800342CAB01AB0A132C01300310A70DA80D33
:10081800FF3E031D092C0130F5007508AB07A81F22
:10082800162C172C082C28082A02031D1D2C270813
:100838002902031C202C212C272C2708A902280870
:10084800031CAA03AA0201300310A80CA70CFF3E40
:10085800031D282C0130AB02031D332C342C172C1C
:100868002A08A8002908A7000800FF1B432C8313A7
:100878007F1883170008840A0319FF0A0800043048
:100888008A000408840A82070034013400340A34D8
:10089800003464340034E8340334103427345334D7
:1008A80031343A3420342034203420345334323430
:1008B8003A34203420342034533433343A34003436
:1008C800253464342E3425346434253464340034B7
:1008D800831203130C1F712C722C7A2C0A128A11A2
:1008E8000E250A128A11831203130C138C1E7D2CF9
:1008F8007E2C942C1A08F1007108F6004B3076060D
:10090800031D872C882C8C2C0130F1007108C50739
:100918004D307606031D912C922C942C0130C50283
:1009280073088A00720E8300FE0E7E0E0900831281
:1009380003139F18A02CA12CC62C1F0CF400740CB8
:100948000F39013A031DA92CAA2CB12CC3309F05DD
:100958002130F400F40BAE2CBF2C1F0CF400740CE7
:100968000F39003A031DB92CBA2CBF2C1F08C33904
:1009780004389F00AC2C2130F400F40BC12C8312F6
:1009880003139F140800DE2C2108FF0020088400B0
:100998000A128A1139240A128A110A128A11612547
:1009A8000A128A11013083120313A0070318A10A3F
:1009B8000030A107831203132108FF0020088400D8
:1009C8000A128A1139240A128A11003A031DED2CE1
:1009D800EE2CC82C080083120313A1002103031D69
:1009E800F62CF72CFE2C20087F3E0A128A1155257A
:1009F8000A128A110230831203132106031D052DE2
:100A0800062D0D2D2008BF3E0A128A1155250A12FF
:100A18008A110800831203131F0CF000700C0F39A1
:100A2800003A031D182D192D1E2D1E08F000700800
:100A3800C8002B2D1F0CF000700C0F39013A031D54
:100A4800262D272D2B2D1E08F0007008C700080042
:100A5800831203138714C730F400322DF40B312DA1
:100A6800352D362D831203138710C730F4003C2D23
:100A7800F40B3B2D3F2D402D08002130831203132A
:100A8800BD003D08AC004508BE00BF013E08AD00F2
:100A98003F08AE0049300A128A1120200A128A1132
:100AA8000800F500831203130710750888000A125E
:100AB8008A112C250A128A110800F50083120313E3
:100AC8000714750888000A128A112C250A128A113F
:100AD800080064008001840A04060319003404062F
:020AE8006E2D71
:04400E00D420FF3F7C
:00000001FF
