:060000000A128A110C280F
:10000800FE00030EF2000A08F3000A128A11FD2B03
:100018000A128A110F28F601F701F801F901831372
:100028004530840069300A128A1133250A128A1170
:1000380083010A128A110A2983120313BB002D3087
:10004800B3003308B600F32825303C0603192D28E1
:100058002E283A283C08B3003B0884003308831351
:1000680080000130B3003308BB07F328B701013023
:10007800AC07FF302C0784000A128A11D4230A1215
:100088008A11BC00B300B4013408003A03194D28A2
:10009800F3283308003A03190529643A0319582844
:1000A8000D3A03195828F3283608840083130008EA
:1000B800B900840A0008BA000230B3003308B60752
:1000C800BA1F6728682871280330B3003308B704BB
:1000D800B909BA09B90A0319BA0ABC01BC0A3C0829
:1000E800B3003307013E84000A128A11D4230A128E
:1000F8008A11B4000A128A11D4230A128A11B5008F
:1001080035083A02031D8A283408390203188D2855
:100118008E288F2899280130B3003308BC07053092
:100128003C06031D982899287328370803390319B2
:100138009E289F28AA282D30B3003B088400330846
:10014800831380000130B3003308BB073C08B300B9
:100158003308B800EA280A30A7000030A800380899
:10016800B3003307013E84000A128A11D4230A120D
:100178008A11A0000A128A11D4230A128A11A10036
:100188003A08A3003908A2000A128A1148230A1261
:100198008A11831203132108AA002008A9000A1251
:1001A8008A118E230A128A11831203132708303EFC
:1001B800B4003408BC003C08B3003B088400330892
:1001C800831380000130B3003308BB07FF30B3004E
:1001D8003308B807380A031DF228F328AF2801307E
:1001E800AC07FF302C0784000A128A11D4230A12A4
:1001F8008A11B3003308BC003C08031D04290529F3
:1002080028283B0884008313800108000A128A11F9
:10021800F3220A128A11831203139F140A128A11F5
:100228002C240A128A1183120313A001A00A013098
:100238000A128A11A3240A128A110B30831203139B
:10024800A0008030A1000A128A1158240A128A11CB
:100258000A128A11E6210A128A1183120313A001D5
:10026800A00A02300A128A11A3240A128A115D30E8
:1002780083120313A0000030A1000A128A11582427
:100288000A128A11073083120313C4004408A0001D
:1002980002300A128A11A3240A128A1153308312D7
:1002A8000313A0000030A1000A128A1158240A1270
:1002B8008A110A128A11F5240A128A110E30831241
:1002C8000313C4004408A00002300A128A11A324B0
:1002D8000A128A11493083120313A0000030A100CA
:1002E8000A128A1158240A128A1112290A128A112A
:1002F8000C2883120313A501A11F832984298B29A4
:10030800A009A109A00A0319A10AA501A50AA31F0A
:100318008E298F299829A209A309A20A0319A30AD9
:100328000130F4007408A506A601A70120082104DD
:1003380003199F29A029D729A401A40AAE290130AD
:100348000310A00DA10DFF3E031DA4290130F400E8
:100358007408A407A11FB129B229A32901300310E9
:10036800A60DA70DFF3E031DB32921082302031D77
:10037800BF2920082202031CC229C329CA29200830
:10038800A2022108031CA303A302261401300310B0
:10039800A10CA00CFF3E031DCB290130A402031DB4
:1003A800D629D729B22925080319DB29DC29E1290F
:1003B800A609A709A60A0319A70A2708A10026085B
:1003C800A0000800683083120313BD003D08F50043
:1003D80048080A128A119C220A128A111C308312B8
:1003E8000313BD003D08AC006A08BE00BF013E080B
:1003F800AD003F08AE006908C000C1014008AF0069
:100408004108B0006808C200C3014208B1004308AF
:10041800B2005D300A128A1120200A128A11673050
:1004280083120313BD003D08F50047080A128A111C
:100438009C220A128A111C3083120313BD003D0846
:10044800AC006908BE00BF013E08AD003F08AE0021
:100458006808C000C1014008AF004108B000670843
:10046800C200C3014208B1004308B20053300A1267
:100478008A1120200A128A11080083120313A50189
:10048800A31F472A482A4F2AA209A309A20A031927
:10049800A30AA501A50AA11F522A532A582AA0096E
:1004A800A109A00A0319A10A2008210403195D2A39
:1004B8005E2A8D2AA401A40A6C2A01300310A00D1B
:1004C800A10DFF3E031D622A0130F4007408A40741
:1004D800A11F6F2A702A612A21082302031D762A88
:1004E80020082202031C792A7A2A802A2008A202DC
:1004F8002108031CA303A30201300310A10CA00CC4
:10050800FF3E031D812A0130A402031D8C2A8D2A77
:10051800702A25080319912A922A972AA209A30961
:10052800A20A0319A30A2308A1002208A0000800B0
:1005380083120313AA002A08A800A9010310280D92
:10054800AB00290DAC00AD01AE010A3083120313D4
:10055800A0000030A1002C08A3002B08A2000A125A
:100568008A1141220A128A11831203132008A80053
:100578002D087507A900290884002808831380001E
:100588000A30A0000030A1002D087507A80028082F
:10059800840000082B02A2002C08031C2C03A300D3
:1005A8000A128A117D210A128A1183120313210863
:1005B800AC002008AB000130AD070318AE0A0030CC
:1005C800AE072E08803AFF0080307F02031DEE2A16
:1005D80003302D02031CF12AF22AA92A080003304D
:1005E80083160317880089010330831603138500D7
:1005F8008601890183120313850189018601831607
:1006080003130F088F3960388F000F149F131F12C0
:100618009F12831203131F083F3940389F00C330CD
:100628009F051F140F3083120313A200A20B1A2B6D
:100638001D2B831203130C13831603130C17831239
:1006480003138C12831603138C160B178B171812AF
:10065800181583160317871117308316031399008B
:100668009A01831203139817181318168316031385
:1006780098160A128A1180240A128A110A128A11FB
:1006880009250A128A11080083120313A501A6017D
:10069800200821040319512B522B892BA401A40AE9
:1006A800602B01300310A00DA10DFF3E031D562B3A
:1006B8000130F4007408A407A11F632B642B552B89
:1006C80001300310A50DA60DFF3E031D652B210863
:1006D8002302031D712B20082202031C742B752B87
:1006E8007C2B2008A2022108031CA303A3022514C3
:1006F80001300310A10CA00CFF3E031D7D2B01301F
:10070800A402031D882B892B642B2608A100250829
:10071800A000080083120313270828040319952B47
:10072800962BC52BAB01AB0AA42B01300310A70DE8
:10073800A80DFF3E031D9A2B0130F5007508AB0785
:10074800A81FA72BA82B992B28082A02031DAE2B1C
:1007580027082902031CB12BB22BB82B2708A902A2
:100768002808031CAA03AA0201300310A80CA70C2E
:10077800FF3E031DB92B0130AB02031DC42BC52B53
:10078800A82B2A08A8002908A7000800FF1BD42BBB
:1007980083137F1883170008840A0319FF0A0800C7
:1007A80003308A000408840A8207003401340034C4
:1007B8000A34003464340034E83403341034273401
:1007C800533431343A3420342034203420345334F0
:1007D80032343A34203420342034533433343A34E5
:1007E8000034253464342E34253464342534643498
:1007F8000034831203130C1F022C032C0B2C0A1237
:100808008A11C2240A128A11831203130C138C1E34
:100818000E2C0F2C252C1A08F1007108F6004B300D
:100828007606031D182C192C1D2C0130F1007108B7
:10083800C5074D307606031D222C232C252C0130AC
:10084800C50273088A00720E8300FE0E7E0E090030
:10085800831203139F18312C322C572C1F0CF400D1
:10086800740C0F39013A031D3A2C3B2C422CC3302F
:100878009F052130F400F40B3F2C502C1F0CF40082
:10088800740C0F39003A031D4A2C4B2C502C1F08AE
:10089800C33904389F003D2C2130F400F40B522C4E
:1008A800831203139F1408006F2C2108FF002008EF
:1008B80084000A128A11CA230A128A110A128A119A
:1008C80027250A128A11013083120313A00703187F
:1008D800A10A0030A107831203132108FF00200892
:1008E80084000A128A11CA230A128A11003A031DC7
:1008F8007E2C7F2C592C08008312031387100710B5
:1009080088018316031387100710880138300A12EC
:100918008A111B250A128A110C300A128A111B250A
:100928000A128A1101300A128A111B250A128A1129
:1009380006300A128A111B250A128A11080083122E
:100948000313A1002103031DAA2CAB2CB22C2008F1
:100958007F3E0A128A111B250A128A11023083125D
:1009680003132106031DB92CBA2CC12C2008BF3E45
:100978000A128A111B250A128A110800831203130E
:100988001F0CF000700C0F39003A031DCC2CCD2C35
:10099800D22C1E08F0007008C800DF2C1F0CF000D5
:1009A800700C0F39013A031DDA2CDB2CDF2C1E08E2
:1009B800F0007008C7000800831203138714C730BB
:1009C800F400E62CF40BE52CE92CEA2C8312031333
:1009D8008710C730F400F02CF40BEF2CF32CF42C18
:1009E8000800213083120313BD003D08AC00450800
:1009F800BE00BF013E08AD003F08AE0049300A12F4
:100A08008A1120200A128A11080001300A128A115C
:100A18001B250A128A110B3083120313A1006130BF
:100A2800A000A00B152DA10B152D1A2D0800F500FF
:100A3800831203130710750888000A128A11E0242C
:100A48000A128A110800F5008312031307147508A7
:100A580088000A128A11E0240A128A110800640028
:0E0A68008001840A0406031900340406342DAC
:04400E00D420FF3F7C
:00000001FF
