:060000000A128A110C280F
:10000800FE00030EF0000A08F1000A128A113C2AC9
:100018000A128A110F28F801F901FA01FB0183136A
:100028002030840044300A128A1134220A128A11BC
:1000380083010A128A11162983120313C4000710B8
:1000480087112530F7005B30F600F60B2928F70BEF
:1000580029282E2830300A128A1164210A128A119E
:100068000B30F7006230F600F60B3828F70B38280B
:10007800000030300A128A1164210A128A110330F2
:10008800F7009730F600F60B4728F70B47284C285F
:1000980030300A128A1164210A128A11831203135A
:1000A8004403031D58285928662808307506031D7F
:1000B8005E285F28662830300A128A1164210A12E5
:1000C8008A119D2802304406031D6B286C28792864
:1000D8000B307506031D7128722879283C300A12E6
:1000E8008A1164210A128A119D284403031D7D2860
:1000F8007E288B280B307506031D832884288B28BF
:1001080034300A128A1164210A128A119D28023099
:100118004406031D902891289D2808307506031D64
:10012800962897289D2838300A128A1164210A12C5
:100138008A1108300A128A1164210A128A110130C0
:100148000A128A1164210A128A1106300A128A11C7
:1001580064210A128A110C300A128A1164210A12C7
:100168008A110800F7008312031307108711770319
:10017800031DBF28C028C72880300A128A116421AD
:100188000A128A11D32802307706031DCC28CD28FD
:10019800D328C0300A128A1164210A128A116830E1
:1001A80083120313C500E330C400C40BD928C50B60
:1001B800D928DE2875080319E228E32815297603CB
:1001C800031DE728E828F728F12814300A128A11B5
:1001D80064210A128A110130F5027508031DF528F9
:1001E800F628E9280A297608031DFB28FC280A298D
:1001F800052910300A128A1164210A128A11013065
:10020800F5027508031D09290A29FD28683083129B
:100218000313C500E330C400C40B1029C50B102913
:10022800152908000A128A111C220A128A110B3099
:1002380083120313C6004608F50002300A128A1119
:1002480020200A128A11F501F601F60A01300A1275
:100258008A11B6200A128A1101300A128A11DC2189
:100268000A128A11F501F50AF601F60A02300A1295
:100278008A11B6200A128A1110300A128A11DC215A
:100288000A128A111A3083120313C8005E30C7009D
:100298006D30C600C60B4E29C70B4E29C80B4E2918
:1002A80055290A128A1102220A128A111F300A12CB
:1002B8008A11DC210A128A1160290A128A110C2873
:1002C800F400741C682969296D2983120313061424
:1002D8007029831203130610F41C732974297629D4
:1002E800861477298610741D7A297B297D2906159D
:1002F8007E290611F41D81298229842986158529DC
:100308008611741E882989298B2906168C290612BC
:10031800F41E8F2990299229861693298612741F14
:1003280096299729992906179A290613F41F9D29B2
:100338009E29A0298617A129861387140D30F3005A
:10034800FB30F200F20BA629F30BA629AB29831286
:1003580003138710080001308A000408840A820702
:1003680000344534643475346134723464346F3421
:10037800203441346E346434723465347334003458
:10038800533461346E34743469347A346F342034BD
:100398004F346C34693476346534743400345634EC
:1003A8006F346C34743461346A3465343A340034EC
:1003B800F7008312031307148711F601F42976084E
:1003C800770784000A128A11AF210A128A110A12C9
:1003D8008A1164210A128A110130F5007508F6079E
:1003E8007608770784000A128A11AF210A128A1147
:1003F800003A031D002A012AE32908008312031387
:100408000710871101300A128A1164210A128A1111
:100418001A30F600F830F500F50B102AF60B102A02
:10042800000002300A128A1164210A128A11080097
:1004380003308316031788008901033083160313DA
:1004480085008601890183120313850189018601CC
:10045800831603130F088F3960388F000F140800B4
:1004680064008001840A0406031900340406352A4E
:0E04780071088A00700E8300FE0E7E0E0900D1
:04400E00D420FF3F7C
:00000001FF
