:060000000A128A110C280F
:10000800FE00030EF2000A08F3000A128A11C92C36
:100018000A128A110F28F701F801F9018313203019
:10002800840046300A128A1161250A128A11830156
:100038000A128A11092983120313E0005230D800EA
:100048005808DB00F2282530610603192C282D28D2
:1000580039286108D8006008840058088313800094
:100068000130D8005808E007F228DC010130D10738
:10007800FF30510784000A128A110A240A128A11D1
:10008800E100D800D9015908003A03194C28F22890
:100098005808003A03190429643A031957280D3AF5
:1000A80003195728F2285B08840083130008DE0030
:1000B800840A0008DF000230D8005808DB07DF1F79
:1000C8006628672870280330D8005808DC04DE0941
:1000D800DF09DE0A0319DF0AE101E10A6108D80035
:1000E8005807013E84000A128A110A240A128A114A
:1000F800D9000A128A110A240A128A11DA005A0847
:100108005F02031D892859085E0203188C288D2870
:100118008E2898280130D8005808E1070530610674
:10012800031D9728982872285C08033903199D280D
:100138009E28A9282D30D800600884005808831309
:1001480080000130D8005808E0076108D800580836
:10015800DD00E9280A30CD000030CE005D08D80067
:100168005807013E84000A128A110A240A128A11C9
:10017800C6000A128A110A240A128A11C7005F08E7
:10018800C9005E08C8000A128A1136230A128A11A9
:10019800831203134708D0004608CF000A128A11B9
:1001A800BF230A128A11831203134D08303ED90067
:1001B8005908E1006108D8006008840058088313D2
:1001C80080000130D8005808E007FF30D8005808F0
:1001D800DD075D0A031DF128F228AE280130D1079A
:1001E800FF30510784000A128A110A240A128A1160
:1001F800D8005808E1006108031D032904292728AD
:10020800600884008313800108000A128A11EE2214
:100218000A128A11831203139F140A128A113324B3
:100228000A128A11F601F60A01300A128A11AA2462
:100238000A128A110B3083120313C6008030C700DC
:100248000A128A115F240A128A110A128A11E121FC
:100258000A128A11F601F60A02300A128A11AA2431
:100268000A128A11393083120313C6000030C700FE
:100278000A128A115F240A128A11073083120313A3
:10028800E9006908F60002300A128A11AA240A1243
:100298008A112F3083120313C6000030C7000A12D8
:1002A8008A115F240A128A110A128A117C230A12FF
:1002B8008A110C3083120313E9006908F600023032
:1002C8000A128A11AA240A128A11253083120313EA
:1002D800C6000030C7000A128A115F240A128A1168
:1002E80011290A128A110C2883120313CB01C71F84
:1002F8007E297F298629C609C709C60A0319C70A9C
:10030800CB01CB0AC91F89298A299329C809C90998
:10031800C80A0319C90A0130F4007408CB06CC01D5
:10032800CD014608470403199A299B29D229CA01F5
:10033800CA0AA92901300310C60DC70DFF3E031DC7
:100348009F290130F4007408CA07C71FAC29AD29DA
:100358009E2901300310CC0DCD0DFF3E031DAE29A3
:1003680047084902031DBA2946084802031CBD294B
:10037800BE29C5294608C8024708031CC903C90283
:100388004C1401300310C70CC60CFF3E031DC629D0
:100398000130CA02031DD129D229AD294B080319FE
:1003A800D629D729DC29CC09CD09CC0A0319CD0ACD
:1003B8004D08C7004C08C6000800453083120313D7
:1003C800E2006208CE0024080A128A1197220A1253
:1003D8008A111C3083120313E2006208D100470817
:1003E800E300E4016308D2006408D3004608E5008E
:1003F800E6016508D4006608D5004508E700E8016D
:100408006708D6006808D70039300A128A111F20F9
:100418000A128A11443083120313E2006208CE00E4
:1004280023080A128A1197220A128A111C30831291
:100438000313E2006208D1004608E300E401630800
:10044800D2006408D3004508E500E6016508D40039
:100458006608D5004408E700E8016708D600680880
:10046800D7002F300A128A111F200A128A11080099
:10047800F60183120313C91F422A432A4A2AC809CC
:10048800C909C80A0319C90AF601F60AC71F4D2A7D
:100498004E2A532AC609C709C60A0319C70A4608B5
:1004A80047040319582A592A882AF501F50A672AA0
:1004B80001300310C60DC70DFF3E031D5D2A013034
:1004C800F4007408F507C71F6A2A6B2A5C2A4708D4
:1004D8004902031D712A46084802031C742A752A1A
:1004E8007B2A4608C8024708031CC903C902013011
:1004F8000310C70CC60CFF3E031D7C2A0130F50211
:10050800031D872A882A6B2A760803198C2A8D2AC4
:10051800922AC809C909C80A0319C90A4908C7009B
:100528004808C600080083120313D1005108CF0001
:10053800D00103104F0DD200500DD300D401D501C6
:100548000A3083120313C6000030C7005308C900DD
:100558005208C8000A128A113C220A128A11831210
:1005680003134608CF0054084E07D00050088400F3
:100578004F08831380000A30C6000030C7005408B3
:100588004E07CF004F08840000085202C8005308E5
:10059800031C5303C9000A128A1178210A128A110E
:1005A800831203134708D3004608D2000130D4074A
:1005B8000318D50A0030D5075508803AFF00803067
:1005C8007F02031DE92A03305402031CEC2AED2A9A
:1005D800A42A080003308316031788008901033012
:1005E800831603138500860189018312031385018D
:1005F80089018601831603130F088F3960388F002D
:100608000F140A128A111A250A128A118316031363
:100618009F131F129F12831203131F083F3940387C
:100628009F00C3309F051F141030F600F60B1A2BDD
:100638000000831203130C13831603130C17831281
:1006480003138C12831603138C160B178B170A12BD
:100658008A1187240A128A110A128A112D250A1270
:100668008A11080083120313CB01CC014608470402
:1006780003193F2B402B772BCA01CA0A4E2B013096
:100688000310C60DC70DFF3E031D442B0130F400B7
:100698007408CA07C71F512B522B432B0130031074
:1006A800CB0DCC0DFF3E031D532B47084902031DFC
:1006B8005F2B46084802031C622B632B6A2B4608F3
:1006C800C8024708031CC903C9024B1401300310B0
:1006D800C70CC60CFF3E031D6B2B0130CA02031D5D
:1006E800762B772B522B4C08C7004B08C600080006
:1006F8002B308312031320062104031D842B852B22
:100708008A2B0130E2006208A207932B2D302006C5
:100718002104031D902B912B932B0130A20243300F
:10072800E2006208CE0022080A128A1197220A12F1
:100738008A111C3083120313E2006208D1004508B5
:10074800E300E4016308D2006408D3004408E5002C
:10075800E6016508D4006608D5004308E700E8010B
:100768006708D6006808D70025300A128A111F20AA
:100778000A128A110800831203134D084E04031944
:10078800C62BC72BF62BF601F60AD52B0130031022
:10079800CD0DCE0DFF3E031DCB2B0130F5007508A6
:1007A800F607CE1FD82BD92BCA2B4E085002031D93
:1007B800DF2B4D084F02031CE22BE32BE92B4D08DE
:1007C800CF024E08031CD003D00201300310CE0C18
:1007D800CD0CFF3E031DEA2B0130F602031DF52B5D
:0E07E800F62BD92B5008CE004F08CD0008008C
:10080000FF1B0A2C83137F1883170008840A03191F
:10081000FF0A080004308A000408840A82070034B2
:10082000013400340A34003464340034E8340334CE
:1008300010342734533431343A34203420342034C3
:100840002034533432343A34203420342034533476
:1008500033343A340034253464342E34253464344B
:10086000253464340034831203139F18382C392C38
:100870005E2C1F0CF400740C0F39013A031D412C3F
:10088000422C492CC3309F052130F400F40B462C38
:10089000572C1F0CF400740C0F39003A031D512C17
:1008A000522C572C1F08C33904389F00442C213088
:1008B000F400F40B592C831203139F140800762CB8
:1008C0004708FF00460884000A128A1100240A1211
:1008D0008A110A128A114B250A128A1101308312D9
:1008E0000313C6070318C70A0030C7078312031390
:1008F0004708FF00460884000A128A1100240A12E1
:100900008A11003A031D852C862C602C0800831266
:10091000031387100710880183160313871007102D
:10092000880138300A128A113F250A128A110C30C8
:100930000A128A113F250A128A1101300A128A11FD
:100940003F250A128A1106300A128A113F250A121F
:100950008A11080083120313C6004603031DB12C3D
:10096000B22CB92C76087F3E0A128A113F250A1252
:100970008A110230831203134606031DC02CC12CBA
:10098000C82C7608BF3E0A128A113F250A128A1126
:100990000800831203130C1FCE2CCF2CD72C0A1265
:1009A0008A11E7240A128A11831203130C138C1E76
:1009B000DA2CDB2CE02C0A128A1157250A128A1134
:1009C00073088A00720E8300FE0E7E0E09008312E9
:1009D00003131F0CF000700C0F39003A031DF12CAB
:1009E000F22CF72C1E08F0007008A400042D1F0C38
:1009F000F000700C0F39013A031DFF2C002D042D5F
:100A00001E08F0007008A300080083120313871467
:100A1000C730F4000B2DF40B0A2D0E2D0F2D831271
:100A200003138710C730F400152DF40B142D182D67
:100A3000192D080005308316031399009A01181226
:100A400018118316031787118312031398171813AD
:100A50001816831603139816080001300A128A111B
:100A60003F250A128A110B3083120313C70061302D
:100A7000C600C60B392DC70B392D3E2D0800F500D9
:100A8000831203130710750888000A128A110525BE
:100A90000A128A110800F50083120313071475085F
:100AA00088000A128A1105250A128A110800831289
:100AB00003131A08F000F1017008A0007108A100EA
:100AC000080064008001840A040603190034040647
:020AD000622D95
:04400E00D420FF3F7C
:00000001FF
