:060000000A128A110C280F
:10000800FE00030EF2000A08F3000A128A11AA2D54
:100018000A128A110F28F601F701F801F901831372
:10002800473084006B300A128A1161260A128A113D
:1000380083010A128A110A2983120313BB002D3087
:10004800B3003308B600F32825303C0603192D28E1
:100058002E283A283C08B3003B0884003308831351
:1000680080000130B3003308BB07F328B701013023
:10007800AC07FF302C0784000A128A110A250A12DD
:100088008A11BC00B300B4013408003A03194D28A2
:10009800F3283308003A03190529643A0319582844
:1000A8000D3A03195828F3283608840083130008EA
:1000B800B900840A0008BA000230B3003308B60752
:1000C800BA1F6728682871280330B3003308B704BB
:1000D800B909BA09B90A0319BA0ABC01BC0A3C0829
:1000E800B3003307013E84000A128A110A250A1256
:1000F8008A11B4000A128A110A250A128A11B50057
:1001080035083A02031D8A283408390203188D2855
:100118008E288F2899280130B3003308BC07053092
:100128003C06031D982899287328370803390319B2
:100138009E289F28AA282D30B3003B088400330846
:10014800831380000130B3003308BB073C08B300B9
:100158003308B800EA280A30A7000030A800380899
:10016800B3003307013E84000A128A110A250A12D5
:100178008A11A0000A128A110A250A128A11A100FE
:100188003A08A3003908A2000A128A1146240A1262
:100198008A11831203132108AA002008A9000A1251
:1001A8008A113F250A128A11831203132708303E49
:1001B800B4003408BC003C08B3003B088400330892
:1001C800831380000130B3003308BB07FF30B3004E
:1001D8003308B807380A031DF228F328AF2801307E
:1001E800AC07FF302C0784000A128A110A250A126C
:1001F8008A11B3003308BC003C08031D04290529F3
:1002080028283B0884008313800108000A128A11F9
:10021800AE230A128A110A128A11C4210A128A11FB
:100228000A128A1123260A128A1183120313A001C3
:1002380001300A128A11FB230A128A112B30831209
:100248000313A0008030A1000A128A117B250A122C
:100258008A11023083120313C4004408A00002303C
:100268000A128A11FB230A128A11243083120313FB
:10027800A0008030A1000A128A117B250A128A1177
:100288001A3083120313C6005E30C5006D30C400F7
:10029800C40B4C29C50B4C29C60B4C295329831276
:1002A80003139F140A128A1123260A128A110A12AA
:1002B8008A11D9250A128A1183120313A001013069
:1002C8000A128A11FB230A128A110B3083120313B4
:1002D800A0008030A1000A128A117B250A128A1117
:1002E8000A128A11A1220A128A1183120313A00189
:1002F80002300A128A11FB230A128A115F30831214
:100308000313A0000030A1000A128A117B250A12EB
:100318008A11073083120313C4004408A000023076
:100328000A128A11FB230A128A1155308312031309
:10033800A0000030A1000A128A117B250A128A1136
:100348000A128A113F260A128A110D3083120313EA
:10035800C4004408A00002300A128A11FB230A12C2
:100368008A114B3083120313A0000030A1000A1237
:100378008A117B250A128A115B290A128A110C2814
:100388008312031387120812253083120313A10066
:100398005B30A000A00BCE29A10BCE2930300A1269
:1003A8008A118C240A128A110B3083120313A100BC
:1003B8006130A000A00BDE29A10BDE29E329303033
:1003C8000A128A118C240A128A11413083120313EB
:1003D800A000A00BED29F02930300A128A118C24D4
:1003E8000A128A11413083120313A000A00BFA29C4
:1003F800FD2938300A128A118C240A128A114130D8
:1004080083120313A000A00B072A0A2A08300A1235
:100418008A118C240A128A11413083120313A00016
:10042800A00B142A172A01300A128A118C240A12E6
:100438008A11413083120313A000A00B212A242A19
:1004480006300A128A118C240A128A11413083124A
:100458000313A000A00B2E2A312A0C300A128A118D
:100468008C240A128A11080083120313A501A11F04
:100478003E2A3F2A462AA009A109A00A0319A10A6F
:10048800A501A50AA31F492A4A2A532AA209A30992
:10049800A20A0319A30A0130F4007408A506A601EC
:1004A800A7012008210403195A2A5B2A922AA401C9
:1004B800A40A692A01300310A00DA10DFF3E031DF7
:1004C8005F2A0130F4007408A407A11F6C2A6D2A62
:1004D8005E2A01300310A60DA70DFF3E031D6E2AEC
:1004E80021082302031D7A2A20082202031C7D2AE0
:1004F8007E2A852A2008A2022108031CA303A3023E
:10050800261401300310A10CA00CFF3E031D862AFF
:100518000130A402031D912A922A6D2A2508031985
:10052800962A972A9C2AA609A709A60A0319A70AA0
:100538002708A1002608A00008006A3083120313C8
:10054800BD003D08F5004A080A128A1157230A120D
:100558008A111C3083120313BD003D08AC006C08DF
:10056800BE00BF013E08AD003F08AE006B08C000EA
:10057800C1014008AF004108B0006A08C200C301C9
:100588004208B1004308B2005F300A128A112020E5
:100598000A128A11693083120313BD003D08F50061
:1005A80049080A128A1157230A128A111C30831229
:1005B8000313BD003D08AC006B08BE00BF013E0838
:1005C800AD003F08AE006A08C000C1014008AF0096
:1005D8004108B0006908C200C3014208B1004308DD
:1005E800B20055300A128A1120200A128A11080016
:1005F80083120313A501A31F022B032B0A2BA209A5
:10060800A309A20A0319A30AA501A50AA11F0D2B74
:100618000E2B132BA009A109A00A0319A10A20086F
:1006280021040319182B192B482BA401A40A272BE2
:1006380001300310A00DA10DFF3E031D1D2B01303D
:10064800F4007408A407A11F2A2B2B2B1C2B2108AC
:100658002302031D312B20082202031C342B352BC7
:100668003B2B2008A2022108031CA303A30201308C
:100678000310A10CA00CFF3E031D3C2B0130A4026B
:10068800031D472B482B2B2B250803194C2B4D2BCF
:10069800522BA209A309A20A0319A30A2308A1003D
:1006A8002208A000080083120313AA002A08A80041
:1006B800A9010310280DAB00290DAC00AD01AE0156
:1006C8000A3083120313A0000030A1002C08A300F5
:1006D8002B08A2000A128A11FC220A128A1183121C
:1006E80003132008A8002D087507A900290884000D
:1006F8002808831380000A30A0000030A1002D08CC
:100708007507A8002808840000082B02A2002C08FE
:10071800031C2C03A3000A128A1138220A128A1118
:10072800831203132108AC002008AB000130AD0789
:100738000318AE0A0030AE072E08803AFF0080305A
:100748007F02031DA92B03302D02031CAC2BAD2BFC
:10075800642B0800033083160317880089010330CF
:100768008316031385008601880187018901831296
:100778000313850188018701890186018316031304
:100788000F088F3960388F000F149F131F129F12A4
:10079800831203131F083F3940389F00C3309F0559
:1007A8001F141030F400F40BD72B0000831203132E
:1007B8000C13831603130C17831203138C1283165E
:1007C80003138C160B178B1718121815831603179B
:1007D800871117308316031399009A0183120313A4
:1007E80098171813181683160313981608008312FF
:1007F8000313A300871208122303031D042C052CDE
:100808000C2C80300A128A118C240A128A11182C96
:1008180002302306031D112C122C182CC0300A128A
:100828008A118C240A128A11683083120313A200D9
:10083800E330A100A10B1E2CA20B1E2C232C83122B
:10084800031320080319292C2A2C452C352C143085
:100858000A128A118C240A128A1101308312031396
:10086800A0022008031D392C3A2C2B2C6830831247
:100878000313A200E330A100A10B402CA20B402CD3
:10088800452C080083120313A501A60120082104A2
:1008980003194F2C502C872CA401A40A5E2C01307C
:1008A8000310A00DA10DFF3E031D542C0130F400D0
:1008B8007408A407A11F612C622C532C013003106B
:1008C800A50DA60DFF3E031D632C21082302031D61
:1008D8006F2C20082202031C722C732C7A2C2008FF
:1008E800A2022108031CA303A3022514013003104C
:1008F800A10CA00CFF3E031D7B2C0130A402031D9C
:10090800862C872C622C2608A1002508A000080048
:10091800F500751C902C912C952C83120313081745
:10092800982C831203130813F51C9B2C9C2C9E2CCB
:1009380088179F2C8813751DA22CA32CA52C061490
:10094800A62C0610F51DA92CAA2CAC2C8614AD2CAF
:100958008610751EB02CB12CB32C0615B42C0611BC
:10096800F51EB72CB82CBA2C8615BB2C8611751F12
:10097800BE2CBF2CC12C0616C22C0612F51FC52C86
:10098800C62CC82C8616C92C86120A128A11532620
:060998000A128A1108009A
:100A0000FF1B0A2D83137F1883170008840A03191C
:100A1000FF0A080005308A000408840A82070034AF
:100A2000013400340A34003464340034E8340334CC
:100A300010342734533431343A34203420342034C1
:100A40002034533432343A34203420342034533474
:100A500033343A340034253464342E342534643449
:100A60002534643400345434653469347034693462
:100A70006F34003448346F346C3461340034831282
:100A80000313270828040319462D472D762DAB01A3
:100A9000AB0A552D01300310A70DA80DFF3E031D15
:100AA0004B2D0130F5007508AB07A81F582D592DA7
:100AB0004A2D28082A02031D5F2D27082902031C3E
:100AC000622D632D692D2708A9022808031CAA039B
:100AD000AA0201300310A80CA70CFF3E031D6A2DCB
:100AE0000130AB02031D752D762D592D2A08A80063
:100AF0002908A70008008312031387160812A30110
:100B0000982D23082007840021080318210AFF00DC
:100B10000A128A1100250A128A110A128A118C24DB
:100B20000A128A11013083120313A2002208A307BC
:100B300023082007840021080318210AFF000A1255
:100B40008A1100250A128A11003A031DA82DA92D29
:100B5000812D0800831203130C1FAF2DB02DB82D6B
:100B60000A128A1105260A128A11831203130C1322
:100B70008C1EBB2DBC2DD22D1A08F1007108F60079
:100B80004B307606031DC52DC62DCA2D0130F10050
:100B90007108C7074D307606031DCF2DD02DD22DFD
:100BA0000130C70273088A00720E8300FE0E7E0EAB
:100BB0000900831203139F18DE2DDF2D042E1F0C56
:100BC000F400740C0F39013A031DE72DE82DEF2DC9
:100BD000C3309F052130F400F40BEC2DFD2D1F0CCC
:100BE000F400740C0F39003A031DF72DF82DFD2D7C
:100BF0001F08C33904389F00EA2D2130F400F40B9C
:100C0000FF2D831203139F140800831203131F0C7C
:100C1000F000700C0F39003A031D0F2E102E152E08
:100C20001E08F0007008CA00222E1F0CF000700C85
:100C30000F39013A031D1D2E1E2E222E1E08F00014
:100C40007008C900080083120313871208120130CC
:100C50000A128A118C240A128A111A308312031381
:100C6000A100F730A000A00B332EA10B332E382E9D
:100C700002300A128A118C240A128A1108002130CB
:100C800083120313BD003D08AC004708BE00BF013E
:100C90003E08AD003F08AE004B300A128A112020FA
:100CA0000A128A110800831203138816C730F40051
:100CB000592EF40B582E5C2E5D2E831203138812CE
:100CC000080064008001840A040603190034040645
:020CD000622E92
:04400E00D420FF3F7C
:00000001FF
