:060000000A128A110C280F
:10000800FE00030EF2000A08F3000A128A11512EAC
:100018000A128A110F28F601F701F801F901831372
:10002800473084006B300A128A117A270A128A1123
:1000380083010A128A110A2983120313BB002D3087
:10004800B3003308B600F32825303C0603192D28E1
:100058002E283A283C08B3003B0884003308831351
:1000680080000130B3003308BB07F328B701013023
:10007800AC07FF302C0784000A128A11BE240A122A
:100088008A11BC00B300B4013408003A03194D28A2
:10009800F3283308003A03190529643A0319582844
:1000A8000D3A03195828F3283608840083130008EA
:1000B800B900840A0008BA000230B3003308B60752
:1000C800BA1F6728682871280330B3003308B704BB
:1000D800B909BA09B90A0319BA0ABC01BC0A3C0829
:1000E800B3003307013E84000A128A11BE240A12A3
:1000F8008A11B4000A128A11BE240A128A11B500A4
:1001080035083A02031D8A283408390203188D2855
:100118008E288F2899280130B3003308BC07053092
:100128003C06031D982899287328370803390319B2
:100138009E289F28AA282D30B3003B088400330846
:10014800831380000130B3003308BB073C08B300B9
:100158003308B800EA280A30A7000030A800380899
:10016800B3003307013E84000A128A11BE240A1222
:100178008A11A0000A128A11BE240A128A11A1004B
:100188003A08A3003908A2000A128A114B250A125C
:100198008A11831203132108AA002008A9000A1251
:1001A8008A1115260A128A11831203132708303E72
:1001B800B4003408BC003C08B3003B088400330892
:1001C800831380000130B3003308BB07FF30B3004E
:1001D8003308B807380A031DF228F328AF2801307E
:1001E800AC07FF302C0784000A128A11BE240A12B9
:1001F8008A11B3003308BC003C08031D04290529F3
:1002080028283B0884008313800108000A128A11F9
:10021800D4250A128A110A128A1179220A128A111D
:100228000A128A1150270A128A1183120313A00195
:1002380001300A128A1100250A128A1138308312F5
:100248000313A0008030A1000A128A118C260A121A
:100258008A11023083120313C4004408A00002303C
:100268000A128A1100250A128A111C3083120313FC
:10027800A0008030A1000A128A118C260A128A1165
:100288001A3083120313C6005E30C5006D30C400F7
:10029800C40B4C29C50B4C29C60B4C295329831276
:1002A80003139F140A128A1150270A128A110A127C
:1002B8008A11E9260A128A1183120313A001013058
:1002C8000A128A1100250A128A110B3083120313AD
:1002D800A0008030A1000A128A118C260A128A1105
:1002E8000A128A1156230A128A1183120313A001D3
:1002F80002300A128A1100250A128A115E3083120E
:100308000313A0000030A1000A128A118C260A12D9
:100318008A11073083120313C4004408A000023076
:100328000A128A1100250A128A1154308312031303
:10033800A0000030A1000A128A118C260A128A1124
:100348000A128A11BB260A128A110D30831203136E
:10035800C4004408A00002300A128A1100250A12BB
:100368008A114A3083120313A0000030A1000A1238
:100378008A118C260A128A115B290A128A110C2802
:100388008030831203132006253003192106031D2C
:10039800CE29CF29E229043022062304031DD529BA
:1003A800D629E22983160313181218158316031782
:1003B800871119308316031399009A01803083122C
:1003C8002006253003192106031DEB29EC29FF29F6
:1003D800083022062304031DF229F329FF29831676
:1003E8000313181218118316031787153330831651
:1003F800031399009A0180308312200625300319CF
:100408002106031D082A092A1B2A22032304031D87
:100418000E2A0F2A1B2A831603131812181583167F
:100428000317871519308316031399009A01B13001
:1004380083122006283003192106031D242A252AA1
:10044800382A043022062304031D2B2A2C2A382A92
:1004580083160313181218158316031787151730F8
:100468008316031399009A01B130831220062830AD
:1004780003192106031D412A422A552A083022065B
:100488002304031D482A492A552A831603131812E0
:1004980018118316031787152F3083160313990035
:1004A8009A01B13083122006283003192106031D52
:1004B8005E2A5F2A712A22032304031D642A652AFF
:1004C800712A831603131812181183160317871538
:1004D80005308316031399009A018312981718138D
:1004E800181683160313981608008312031387122D
:1004F8000812253083120313A1005B30A000A00B63
:10050800832AA10B832A30300A128A1191250A12F4
:100518008A110B3083120313A1006130A000A00BD5
:10052800932AA10B932A982A30300A128A1191250E
:100538000A128A11413083120313A000A00BA22AC9
:10054800A52A30300A128A1191250A128A114130DF
:1005580083120313A000A00BAF2AB22A38300A1264
:100568008A1191250A128A11413083120313A000BF
:10057800A00BBC2ABF2A08300A128A1191250A1238
:100588008A11413083120313A000A00BC92ACC2A78
:1005980001300A128A1191250A128A1141308312F8
:1005A8000313A000A00BD62AD92A06300A128A11F2
:1005B80091250A128A11413083120313A000A00B5F
:1005C800E32AE62A0C300A128A1191250A128A11A6
:1005D800080083120313A501A11FF32AF42AFB2A9A
:1005E800A009A109A00A0319A10AA501A50AA31F28
:1005F800FE2AFF2A082BA209A309A20A0319A30AA3
:100608000130F4007408A506A601A70120082104FA
:1006180003190F2B102B472BA401A40A1E2B013002
:100628000310A00DA10DFF3E031D142B0130F40093
:100638007408A407A11F212B222B132B01300310B0
:10064800A60DA70DFF3E031D232B21082302031D22
:100658002F2B20082202031C322B332B3A2B200885
:10066800A2022108031CA303A302261401300310CD
:10067800A10CA00CFF3E031D3B2B0130A402031D5F
:10068800462B472B222B250803194B2B4C2B512B80
:10069800A609A709A60A0319A70A2708A100260878
:1006A800A00008006A3083120313BD003D08F5005E
:1006B80049080A128A110C240A128A112930831255
:1006C8000313BD003D08AC006C08BE00BF013E0826
:1006D800AD003F08AE006B08C000C1014008AF0084
:1006E8004108B0006A08C200C3014208B1004308CB
:1006F800B2005E300A128A1120200A128A1169306B
:1007080083120313BD003D08F50048080A128A1138
:100718000C240A128A11293083120313BD003D08E4
:10072800AC006B08BE00BF013E08AD003F08AE003C
:100738006A08C000C1014008AF004108B00069085C
:10074800C200C3014208B1004308B20054300A1283
:100758008A1120200A128A11080083120313A501A6
:10076800A31FB72BB82BBF2BA209A309A20A0319F1
:10077800A30AA501A50AA11FC22BC32BC82BA00938
:10078800A109A00A0319A10A200821040319CD2BE5
:10079800CE2BFD2BA401A40ADC2B01300310A00DE5
:1007A800A10DFF3E031DD22B0130F4007408A407ED
:1007B800A11FDF2BE02BD12B21082302031DE62BE1
:1007C80020082202031CE92BEA2BF02B2008A202A6
:1007D8002108031CA303A30201300310A10CA00CE1
:1007E800FF3E031DF12B0130A402031DFC2BFD2B42
:1007F800E02B25080319012C022C072CA209A309B8
:10080800A20A0319A30A2308A1002208A0000800CD
:1008180083120313AA002A08A800A9010310280DAF
:10082800AB00290DAC00AD01AE010A3083120313F1
:10083800A0000030A1002C08A3002B08A2000A1277
:100848008A11B1230A128A11831203132008A800FF
:100858002D087507A900290884002808831380003B
:100868000A30A0000030A1002D087507A80028084C
:10087800840000082B02A2002C08031C2C03A300F0
:100888000A128A11ED220A128A118312031321080F
:10089800AC002008AB000130AD070318AE0A0030E9
:1008A800AE072E08803AFF0080307F02031D5E2CC1
:1008B80003302D02031C612C622C192C08008312B2
:1008C8000313AC00AD01AE010A3083120313A0007C
:1008D8000030A1002C08A800A9012808A2002908B6
:1008E800A3000A128A11B1230A128A118312031370
:1008F8002008AA002D087507AB002B0884002A08D9
:10090800831380000A30A0000030A1002D0875076D
:10091800A8002808840000082C02A200A301031CD8
:10092800A3030A128A11ED220A128A1183120313F1
:100938002008A9002908AC000130AD070318AE0A49
:100948000030AE072E08803AFF0080307F02031D7A
:10095800AF2C03302D02031CB22CB32C682C0800DA
:10096800FF1BBE2C83137F1883170008840A031902
:10097800FF0A080004308A000408840A8207003449
:10098800013400340A34003464340034E834033465
:1009980010342734533431343A342034203420345A
:1009A8002034533432343A3420342034203453340D
:1009B80033343A3400344A346F3473346534203471
:1009C800533461346E34743469347A346F34003497
:1009D800253464342E3425346434253464340034A6
:1009E800253464342534643425346434003448347C
:1009F8006F346C346134003483120313A3008712FC
:100A080008122303031D092D0A2D112D80300A1207
:100A18008A1191250A128A111D2D02302306031D01
:100A2800162D172D1D2DC0300A128A1191250A1274
:100A38008A11683083120313A200E330A100A10BCE
:100A4800232DA20B232D282D83120313200803190D
:100A58002E2D2F2D4A2D3A2D14300A128A11912548
:100A68000A128A11013083120313A0022008031D01
:100A78003E2D3F2D302D683083120313A200E33042
:100A8800A100A10B452DA20B452D4A2D080083126C
:100A98000313A501A601200821040319542D552D7F
:100AA8008C2DA401A40A632D01300310A00DA10D03
:100AB800FF3E031D592D0130F4007408A407A11F3F
:100AC800662D672D582D01300310A50DA60DFF3E8C
:100AD800031D682D21082302031D742D20082202FE
:100AE800031C772D782D7F2D2008A2022108031CD6
:100AF800A303A302251401300310A10CA00CFF3E90
:100B0800031D802D0130A402031D8B2D8C2D672D14
:100B18002608A1002508A0000800F500751C952DE1
:100B2800962D9A2D8312031308179D2D83120313F4
:100B38000813F51CA02DA12DA32D8817A42D88130B
:100B4800751DA72DA82DAA2D0614AB2D0610F51D71
:100B5800AE2DAF2DB12D8614B22D8610751EB52D74
:100B6800B62DB82D0615B92D0611F51EBC2DBD2DB7
:100B7800BF2D8615C02D8611751FC32DC42DC62DFA
:100B88000616C72D0612F51FCA2DCB2DCD2D86169C
:100B9800CE2D86120A128A116C270A128A110800B1
:100BA8000330831603178800890103308316031363
:100BB8008500860188018701890183120313850155
:100BC8008801870189018601831603130F088F396D
:100BD80060388F000F140030F400F5000A128A11F3
:100BE80033270A128A11831203130C138316031373
:100BF8000C17831203138C12831603138C160B170E
:100C08008B17803083120313A0002530A100043015
:100C1800A2000030A3000A128A11C4210A128A1104
:100C28000800831203132708280403191C2E1D2EFD
:100C38004C2EAB01AB0A2B2E01300310A70DA80DCB
:100C4800FF3E031D212E0130F5007508AB07A81FD4
:100C58002E2E2F2E202E28082A02031D352E270877
:100C68002902031C382E392E3F2E2708A9022808EE
:100C7800031CAA03AA0201300310A80CA70CFF3E0C
:100C8800031D402E0130AB02031D4B2E4C2E2F2E80
:100C98002A08A8002908A7000800831203130C1FBC
:100CA800562E572E5F2E0A128A1115270A128A11FC
:100CB800831203130C138C1E622E632E852E1A08C2
:100CC800F1007108F6002B30760603196C2E6D2E94
:100CD800732E4D307606031D722E732E772E01303B
:100CE800F1007108C7072D30760603197C2E7D2E7A
:100CF800832E4B307606031D822E832E852E0130DF
:100D0800C70273088A00720E8300FE0E7E0E090069
:100D18008312031387160812A301A92E230820079C
:100D2800840021080318210AFF000A128A11B4243A
:100D38000A128A110A128A1191250A128A1101309F
:100D480083120313A2002208A307230820078400A4
:100D580021080318210AFF000A128A11B4240A1272
:100D68008A11003A031DB92EBA2E922E0800683057
:100D780083120313BD003D08F50047080A128A11C3
:100D880063240A128A11313083120313BD003D080F
:100D9800AC006A08BE00BF013E08AD003F08AE00C7
:100DA8006908C000C1014008AF004108B0006808E8
:100DB800C200C3014208B1004308B2004A300A1217
:100DC8008A1120200A128A110800831203139F181F
:100DD800EE2EEF2E142F1F0CF400740C0F39013A6D
:100DE800031DF72EF82EFF2EC3309F052130F40087
:100DF800F40BFC2E0D2F1F0CF400740C0F39003A65
:100E0800031D072F082F0D2F1F08C33904389F0013
:100E1800FA2E2130F400F40B0F2F831203139F14C2
:100E28000800831203131F0CF000700C0F39003AEE
:100E3800031D1F2F202F252F1E08F0007008C90042
:100E4800322F1F0CF000700C0F39013A031D2D2FA3
:100E58002E2F322F1E08F0007008C80008008316D5
:100E680003139F131F129F12831203131F083F3986
:100E780040389F007408A000A00DA00D1F08200690
:100E8800C33920069F001F14203083120313A000CB
:100E9800A00B4C2F000008008312031387120812BE
:100EA80001300A128A1191250A128A111A30831206
:100EB8000313A100F730A000A00B602FA10B602F37
:100EC800652F02300A128A1191250A128A11080028
:100ED800831203138816C730F400722FF40B712F96
:100EE800752F762F8312031388120800640080017F
:0C0EF800840A04060319003404067B2F52
:04400E00D420FF3F7C
:00000001FF
