:060000000A128A110C280F
:10000800FE00030EF2000A08F3000A128A115A2CA5
:100018000A128A110F28F601F701F801F901831372
:100028004530840069300A128A115F250A128A1144
:1000380083010A128A110A2983120313BB002D3087
:10004800B3003308B600F32825303C0603192D28E1
:100058002E283A283C08B3003B0884003308831351
:1000680080000130B3003308BB07F328B701013023
:10007800AC07FF302C0784000A128A1131240A12B7
:100088008A11BC00B300B4013408003A03194D28A2
:10009800F3283308003A03190529643A0319582844
:1000A8000D3A03195828F3283608840083130008EA
:1000B800B900840A0008BA000230B3003308B60752
:1000C800BA1F6728682871280330B3003308B704BB
:1000D800B909BA09B90A0319BA0ABC01BC0A3C0829
:1000E800B3003307013E84000A128A1131240A1230
:1000F8008A11B4000A128A1131240A128A11B50031
:1001080035083A02031D8A283408390203188D2855
:100118008E288F2899280130B3003308BC07053092
:100128003C06031D982899287328370803390319B2
:100138009E289F28AA282D30B3003B088400330846
:10014800831380000130B3003308BB073C08B300B9
:100158003308B800EA280A30A7000030A800380899
:10016800B3003307013E84000A128A1131240A12AF
:100178008A11A0000A128A1131240A128A11A100D8
:100188003A08A3003908A2000A128A11A5230A1204
:100198008A11831203132108AA002008A9000A1251
:1001A8008A11EB230A128A11831203132708303E9F
:1001B800B4003408BC003C08B3003B088400330892
:1001C800831380000130B3003308BB07FF30B3004E
:1001D8003308B807380A031DF228F328AF2801307E
:1001E800AC07FF302C0784000A128A1131240A1246
:1001F8008A11B3003308BC003C08031D04290529F3
:1002080028283B0884008313800108000A128A11F9
:1002180055230A128A11831203139F140A128A1192
:1002280089240A128A1183120313A101A10A013039
:100238000A128A11DD240A128A110B308312031361
:10024800A1008030A2000A128A11B5240A128A116C
:100258000A128A1148220A128A1183120313A10171
:10026800A10A02300A128A11DD240A128A115D30AD
:1002780083120313A1000030A2000A128A11B524C8
:100288000A128A11073083120313C4004408A1001C
:1002980002300A128A11DD240A128A11533083129D
:1002A8000313A1000030A2000A128A11B5240A1211
:1002B8008A110A128A1133250A128A110E30831202
:1002C8000313C4004408A10002300A128A11DD2475
:1002D8000A128A11493083120313A1000030A200C8
:1002E8000A128A11B5240A128A1112290A128A11CD
:1002F8000C2883120313A501A11F832984298B29A4
:10030800A009A109A00A0319A10AA501A50AA31F0A
:100318008E298F299829A209A309A20A0319A30AD9
:100328000130F4007408A506A601A70120082104DD
:1003380003199F29A029D729A401A40AAE290130AD
:100348000310A00DA10DFF3E031DA4290130F400E8
:100358007408A407A11FB129B229A32901300310E9
:10036800A60DA70DFF3E031DB32921082302031D77
:10037800BF2920082202031CC229C329CA29200830
:10038800A2022108031CA303A302261401300310B0
:10039800A10CA00CFF3E031DCB290130A402031DB4
:1003A800D629D729B22925080319DB29DC29E1290F
:1003B800A609A709A60A0319A70A2708A10026085B
:1003C800A000080083120313871007108801831602
:1003D80003138710071088012A3083120313A20021
:1003E8008D30A100A10BF629A20BF62930300A1294
:1003F8008A1153250A128A110D3083120313A200A1
:10040800FB30A100A10B062AA20B062A30300A12E3
:100418008A1153250A128A11843083120313A1000A
:10042800A10B142A000030300A128A1153250A122F
:100438008A11023083120313A3000430A200B930DA
:10044800A100A10B252AA20B252AA30B252A2C2AB9
:1004580038300A128A1153250A128A11023083127F
:100468000313A3000430A200B930A100A10B3A2A5B
:10047800A20B3A2AA30B3A2A412A0C300A128A11F3
:1004880053250A128A110800683083120313BD002D
:100498003D08F50048080A128A11FE220A128A113C
:1004A8001C3083120313BD003D08AC006A08BE006F
:1004B800BF013E08AD003F08AE006908C000C10199
:1004C8004008AF004108B0006808C200C3014208F4
:1004D800B1004308B2005D300A128A1120200A12C6
:1004E8008A11673083120313BD003D08F5004708E1
:1004F8000A128A11FE220A128A111C30831203136F
:10050800BD003D08AC006908BE00BF013E08AD0053
:100518003F08AE006808C000C1014008AF004108AC
:10052800B0006708C200C3014208B1004308B20026
:1005380053300A128A1120200A128A1108008312E5
:100548000313A501A31FA92AAA2AB12AA209A3094C
:10055800A20A0319A30AA501A50AA11FB42AB52A4C
:10056800BA2AA009A109A00A0319A10A200821048E
:100578000319BF2AC02AEF2AA401A40ACE2A0130EF
:100588000310A00DA10DFF3E031DC42A0130F40085
:100598007408A407A11FD12AD22AC32A210823023A
:1005A800031DD82A20082202031CDB2ADC2AE22A9F
:1005B8002008A2022108031CA303A3020130031090
:1005C800A10CA00CFF3E031DE32A0130A402031D69
:1005D800EE2AEF2AD22A25080319F32AF42AF92A3F
:1005E800A209A309A20A0319A30A2308A100220841
:1005F800A000080083120313AA002A08A800A90172
:100608000310280DAB00290DAC00AD01AE010A3076
:1006180083120313A0000030A1002C08A3002B08AC
:10062800A2000A128A11A3220A128A118312031342
:100638002008A8002D087507A900290884002808A3
:10064800831380000A30A0000030A1002D08750730
:10065800A8002808840000082B02A2002C08031C0C
:100668002C03A3000A128A117D210A128A1183120F
:1006780003132108AC002008AB000130AD070318B4
:10068800AE0A0030AE072E08803AFF0080307F02A5
:10069800031D502B03302D02031C532B542B0B2B03
:1006A8000800033083160317880089010330831676
:1006B80003138500860189018312031385018901CB
:1006C8008601831603130F088F3960388F000F14C3
:1006D8009F131F129F12831203131F083F394038BC
:1006E8009F00C3309F051F140F3083120313A4000B
:1006F800A40B7C2B7F2B831203130C138316031379
:100708000C17831203138C12831603138C160B1702
:100718008B171812181583160317871117308316AD
:10072800031399009A0183120313981718131816C4
:100738008316031398160A128A11E6210A128A11DF
:10074800080083120313A501A60120082104031938
:10075800AE2BAF2BE62BA401A40ABD2B013003104E
:10076800A00DA10DFF3E031DB32B0130F40074084A
:10077800A407A11FC02BC12BB22B01300310A50D5C
:10078800A60DFF3E031DC22B21082302031DCE2BFD
:1007980020082202031CD12BD22BD92B2008A2021D
:1007A8002108031CA303A302251401300310A10C84
:1007B800A00CFF3E031DDA2B0130A402031DE52B1C
:1007C800E62BC12B2608A1002508A00008008312EB
:1007D8000313270828040319F22BF32B222CAB014F
:1007E800AB0A012C01300310A70DA80DFF3E031D15
:1007F800F72B0130F5007508AB07A81F042C052C52
:10080800F62B28082A02031D0B2C27082902031C93
:100818000E2C0F2C152C2708A9022808031CAA0344
:10082800AA0201300310A80CA70CFF3E031D162CCA
:100838000130AB02031D212C222C052C2A08A8000C
:100848002908A7000800FF1B312C83137F18831782
:100858000008840A0319FF0A080004308A00040803
:10086800840A82070034013400340A3400346434C2
:100878000034E834033410342734533431343A34F0
:100888002034203420342034533432343A34203461
:1008980020342034533433343A3400342534643427
:1008A8002E3425346434253464340034831203131D
:1008B8000C1F5F2C602C682C0A128A11FC240A1267
:1008C8008A11831203130C138C1E6B2C6C2C822C34
:1008D8001A08F1007108F6004B307606031D752CD6
:1008E800762C7A2C0130F1007108C5074D30760658
:1008F800031D7F2C802C822C0130C50273088A00CE
:10090800720E8300FE0E7E0E0900831203139F18D9
:100918008E2C8F2CB42C1F0CF400740C0F39013A58
:10092800031D972C982C9F2CC3309F052130F40071
:10093800F40B9C2CAD2C1F0CF400740C0F39003AEE
:10094800031DA72CA82CAD2C1F08C33904389F0001
:100958009A2C2130F400F40BAF2C831203139F144C
:100968000800CC2C2208FF00210884000A128A11F2
:1009780027240A128A110A128A1153250A128A1187
:10098800013083120313A1070318A20A0030A2073B
:10099800831203132208FF00210884000A128A1117
:1009A80027240A128A11003A031DDB2CDC2CB62CF2
:1009B800080083120313A2002203031DE42CE52C74
:1009C800EC2C21087F3E0A128A1147250A128A1147
:1009D8000230831203132206031DF32CF42CFB2C84
:1009E8002108BF3E0A128A1147250A128A110800F7
:1009F800831203131F0CF000700C0F39003A031D0B
:100A0800062D072D0C2D1E08F0007008C800192DA2
:100A18001F0CF000700C0F39013A031D142D152D11
:100A2800192D1E08F0007008C70008008312031370
:100A380087140B30F5006230F400F40B212DF50B10
:100A4800212D00008312031387100B30F50062304C
:100A5800F400F40B2D2DF50B2D2D0000080021308E
:100A680083120313BD003D08AC004508BE00BF015A
:100A78003E08AD003F08AE0049300A128A11202016
:100A88000A128A11080083120313A0000710200815
:100A980088000A128A111A250A128A11080083127C
:100AA8000313A0000714200888000A128A111A25C7
:100AB8000A128A11080064008001840A04060319D6
:060AC80000340406602D5D
:04400E00D420FF3F7C
:00000001FF
