:060000000A128A110C280F
:10000800FE00030EF2000A08F3000A128A11CF2D2F
:100018000A128A110F28F601F701F801F901831372
:10002800473084006B300A128A11BD260A128A11E1
:1000380083010A128A110A2983120313BB002D3087
:10004800B3003308B600F32825303C0603192D28E1
:100058002E283A283C08B3003B0884003308831351
:1000680080000130B3003308BB07F328B701013023
:10007800AC07FF302C0784000A128A110A240A12DE
:100088008A11BC00B300B4013408003A03194D28A2
:10009800F3283308003A03190529643A0319582844
:1000A8000D3A03195828F3283608840083130008EA
:1000B800B900840A0008BA000230B3003308B60752
:1000C800BA1F6728682871280330B3003308B704BB
:1000D800B909BA09B90A0319BA0ABC01BC0A3C0829
:1000E800B3003307013E84000A128A110A240A1257
:1000F8008A11B4000A128A110A240A128A11B50058
:1001080035083A02031D8A283408390203188D2855
:100118008E288F2899280130B3003308BC07053092
:100128003C06031D982899287328370803390319B2
:100138009E289F28AA282D30B3003B088400330846
:10014800831380000130B3003308BB073C08B300B9
:100158003308B800EA280A30A7000030A800380899
:10016800B3003307013E84000A128A110A240A12D6
:100178008A11A0000A128A110A240A128A11A100FF
:100188003A08A3003908A2000A128A1197240A1211
:100198008A11831203132108AA002008A9000A1251
:1001A8008A1164250A128A11831203132708303E24
:1001B800B4003408BC003C08B3003B088400330892
:1001C800831380000130B3003308BB07FF30B3004E
:1001D8003308B807380A031DF228F328AF2801307E
:1001E800AC07FF302C0784000A128A110A240A126D
:1001F8008A11B3003308BC003C08031D04290529F3
:1002080028283B0884008313800108000A128A11F9
:10021800DD240A128A110A128A11C4210A128A11CB
:100228000A128A1193260A128A1183120313A00153
:1002380001300A128A114C240A128A1138308312AA
:100248000313A0008030A1000A128A11A0250A1207
:100258008A11023083120313C4004408A00002303C
:100268000A128A114C240A128A111C3083120313B1
:10027800A0008030A1000A128A11A0250A128A1152
:100288001A3083120313C6005E30C5006D30C400F7
:10029800C40B4C29C50B4C29C60B4C295329831276
:1002A80003139F140A128A1193260A128A110A123A
:1002B8008A112C260A128A1183120313A001013015
:1002C8000A128A114C240A128A110B308312031362
:1002D800A0008030A1000A128A11A0250A128A11F2
:1002E8000A128A11A1220A128A1183120313A00189
:1002F80002300A128A114C240A128A115E308312C3
:100308000313A0000030A1000A128A11A0250A12C6
:100318008A11073083120313C4004408A000023076
:100328000A128A114C240A128A11543083120313B8
:10033800A0000030A1000A128A11A0250A128A1111
:100348000A128A11FE250A128A110D30831203132C
:10035800C4004408A00002300A128A114C240A1270
:100368008A114A3083120313A0000030A1000A1238
:100378008A11A0250A128A115B290A128A110C28EF
:100388008312031387120812253083120313A10066
:100398005B30A000A00BCE29A10BCE2930300A1269
:1003A8008A1121250A128A110B3083120313A10026
:1003B8006130A000A00BDE29A10BDE29E329303033
:1003C8000A128A1121250A128A1141308312031355
:1003D800A000A00BED29F02930300A128A1121253E
:1003E8000A128A11413083120313A000A00BFA29C4
:1003F800FD2938300A128A1121250A128A11413042
:1004080083120313A000A00B072A0A2A08300A1235
:100418008A1121250A128A11413083120313A00080
:10042800A00B142A172A01300A128A1121250A1250
:100438008A11413083120313A000A00B212A242A19
:1004480006300A128A1121250A128A1141308312B4
:100458000313A000A00B2E2A312A0C300A128A118D
:1004680021250A128A11080083120313A501A11F6E
:100478003E2A3F2A462AA009A109A00A0319A10A6F
:10048800A501A50AA31F492A4A2A532AA209A30992
:10049800A20A0319A30A0130F4007408A506A601EC
:1004A800A7012008210403195A2A5B2A922AA401C9
:1004B800A40A692A01300310A00DA10DFF3E031DF7
:1004C8005F2A0130F4007408A407A11F6C2A6D2A62
:1004D8005E2A01300310A60DA70DFF3E031D6E2AEC
:1004E80021082302031D7A2A20082202031C7D2AE0
:1004F8007E2A852A2008A2022108031CA303A3023E
:10050800261401300310A10CA00CFF3E031D862AFF
:100518000130A402031D912A922A6D2A2508031985
:10052800962A972A9C2AA609A709A60A0319A70AA0
:100538002708A1002608A00008006A3083120313C8
:10054800BD003D08F50049080A128A1157230A120E
:100558008A11293083120313BD003D08AC006C08D2
:10056800BE00BF013E08AD003F08AE006B08C000EA
:10057800C1014008AF004108B0006A08C200C301C9
:100588004208B1004308B2005E300A128A112020E6
:100598000A128A11693083120313BD003D08F50061
:1005A80048080A128A1157230A128A11293083121D
:1005B8000313BD003D08AC006B08BE00BF013E0838
:1005C800AD003F08AE006A08C000C1014008AF0096
:1005D8004108B0006908C200C3014208B1004308DD
:1005E800B20054300A128A1120200A128A11080017
:1005F80083120313A501A31F022B032B0A2BA209A5
:10060800A309A20A0319A30AA501A50AA11F0D2B74
:100618000E2B132BA009A109A00A0319A10A20086F
:1006280021040319182B192B482BA401A40A272BE2
:1006380001300310A00DA10DFF3E031D1D2B01303D
:10064800F4007408A407A11F2A2B2B2B1C2B2108AC
:100658002302031D312B20082202031C342B352BC7
:100668003B2B2008A2022108031CA303A30201308C
:100678000310A10CA00CFF3E031D3C2B0130A4026B
:10068800031D472B482B2B2B250803194C2B4D2BCF
:10069800522BA209A309A20A0319A30A2308A1003D
:1006A8002208A000080083120313AA002A08A80041
:1006B800A9010310280DAB00290DAC00AD01AE0156
:1006C8000A3083120313A0000030A1002C08A300F5
:1006D8002B08A2000A128A11FC220A128A1183121C
:1006E80003132008A8002D087507A900290884000D
:1006F8002808831380000A30A0000030A1002D08CC
:100708007507A8002808840000082B02A2002C08FE
:10071800031C2C03A3000A128A1138220A128A1118
:10072800831203132108AC002008AB000130AD0789
:100738000318AE0A0030AE072E08803AFF0080305A
:100748007F02031DA92B03302D02031CAC2BAD2BFC
:10075800642B080083120313AC00AD01AE010A300C
:1007680083120313A0000030A1002C08A800A901DF
:100778002808A2002908A3000A128A11FC220A12DA
:100788008A11831203132008AA002D087507AB00ED
:100798002B0884002A08831380000A30A000003048
:1007A800A1002D087507A8002808840000082C025D
:1007B800A200A301031CA3030A128A1138220A12F9
:1007C8008A11831203132008A9002908AC000130FC
:1007D800AD070318AE0A0030AE072E08803AFF00B6
:1007E80080307F02031DFA2B03302D02031CFD2BE2
:0607F800FE2BB32B0800EC
:10080000FF1B0A2C83137F1883170008840A03191F
:10081000FF0A080004308A000408840A82070034B2
:10082000013400340A34003464340034E8340334CE
:1008300010342734533431343A34203420342034C3
:100840002034533432343A34203420342034533476
:1008500033343A3400344A346F34733465342034DA
:10086000533461346E34743469347A346F34003400
:10087000253464342E34253464342534643400340F
:1008800025346434253464342534643400344834E5
:100890006F346C346134003483120313A300871265
:1008A00008122303031D552C562C5D2C80300A1290
:1008B0008A1121250A128A11692C02302306031D90
:1008C000622C632C692CC0300A128A1121250A126D
:1008D0008A11683083120313A200E330A100A10B38
:1008E0006F2CA20B6F2C742C831203132008031996
:1008F0007A2C7B2C962C862C14300A128A112125F6
:100900000A128A11013083120313A0022008031D6A
:100910008A2C8B2C7C2C683083120313A200E330CA
:10092000A100A10B912CA20B912C962C08008312F4
:100930000313A501A601200821040319A02CA12C52
:10094000D82CA401A40AAF2C01300310A00DA10DD6
:10095000FF3E031DA52C0130F4007408A407A11F5D
:10096000B22CB32CA42C01300310A50DA60DFF3E14
:10097000031DB42C21082302031DC02C20082202D1
:10098000031CC32CC42CCB2C2008A2022108031C5E
:10099000A303A302251401300310A10CA00CFF3EF9
:1009A000031DCC2C0130A402031DD72CD82CB32C52
:1009B0002608A1002508A0000800033083160317AD
:1009C000880089010330831603138500860188019E
:1009D0008701890183120313850188018701890139
:1009E0008601831603130F088F3960388F000F14A8
:1009F0000030F400F5000A128A1176260A128A11D4
:100A0000831203130C13831603130C17831203139F
:100A10008C12831603138C160B178B1718121815CC
:100A200083160317871517308316031399009A014D
:100A300083120313981718131816831603139816A6
:100A40000800F500751C252D262D2A2D8312031371
:100A500008172D2D831203130813F51C302D312D8B
:100A6000332D8817342D8813751D372D382D3A2DC9
:100A700006143B2D0610F51D3E2D3F2D412D8614ED
:100A8000422D8610751E452D462D482D0615492DE3
:100A90000611F51E4C2D4D2D4F2D8615502D86110E
:100AA000751F532D542D562D0616572D0612F51F62
:100AB0005A2D5B2D5D2D86165E2D86120A128A1127
:100AC000AF260A128A11080083120313270828048C
:100AD00003196B2D6C2D9B2DAB01AB0A7A2D0130C8
:100AE0000310A70DA80DFF3E031D702D0130F5006A
:100AF0007508AB07A81F7D2D7E2D6F2D28082A02B3
:100B0000031D842D27082902031C872D882D8E2D77
:100B10002708A9022808031CAA03AA02013003100F
:100B2000A80CA70CFF3E031D8F2D0130AB02031D47
:100B30009A2D9B2D7E2D2A08A8002908A7000800C1
:100B40008312031387160812A301BD2D2308200763
:100B5000840021080318210AFF000A128A110024C8
:100B60000A128A110A128A1121250A128A110130E9
:100B700083120313A2002208A3072308200784007E
:100B800021080318210AFF000A128A1100240A1200
:100B90008A11003A031DCD2DCE2DA62D08008312FB
:100BA00003130C1FD42DD52DDD2D0A128A115826C2
:100BB0000A128A11831203130C138C1EE02DE12DEF
:100BC000F72D1A08F1007108F6004B307606031D68
:100BD000EA2DEB2DEF2D0130F1007108C7074D30E4
:100BE0007606031DF42DF52DF72D0130C70273088D
:100BF0008A00720E8300FE0E7E0E0900683083129A
:100C00000313BD003D08F50047080A128A11AE2300
:100C10000A128A11313083120313BD003D08AC0063
:100C20006A08BE00BF013E08AD003F08AE0069087B
:100C3000C000C1014008AF004108B0006808C20010
:100C4000C3014208B1004308B2004A300A128A11B7
:100C500020200A128A110800831203139F18312ED4
:100C6000322E572E1F0CF400740C0F39013A031D5D
:100C70003A2E3B2E422EC3309F052130F400F40B58
:100C80003F2E502E1F0CF400740C0F39003A031D38
:100C90004A2E4B2E502E1F08C33904389F003D2E7C
:100CA0002130F400F40B522E831203139F1408001A
:100CB000831203131F0CF000700C0F39003A031D50
:100CC000622E632E682E1E08F0007008C900752E73
:100CD0001F0CF000700C0F39013A031D702E712E9D
:100CE000752E1E08F0007008C80008008316031354
:100CF0009F131F129F12831203131F083F3940389E
:100D00009F007408A000A00DA00D1F082006C33985
:100D100020069F001F14203083120313A000A00B95
:100D20008F2E00000800831203138712081201306F
:100D30000A128A1121250A128A111A30831203130A
:100D4000A100F730A000A00BA32EA10BA32EA82E6C
:100D500002300A128A1121250A128A110800831210
:100D600003138816C730F400B52EF40BB42EB82E3A
:100D7000B92E831203138812080064008001840ACC
:0A0D80000406031900340406BE2E19
:04400E00D420FF3F7C
:00000001FF
