:060000000A128A110C280F
:10000800FE00030EF0000A08F1000A128A111629F0
:100018000A128A110F28F601F70183120313A001AF
:10002800A101A201A301A401A501A601A701A8019C
:10003800A90183010A128A117528831603178801FA
:100048008901033083160313850086018901831211
:10005800031385018601831603130F088F3960384F
:100068008F000F149F131F129F12831203131F0870
:100078003F3940389F001F08C33914389F001F14A8
:100088001030F200F20B46280000831203130C1301
:10009800831603130C170B178B170800831203130F
:1000A800871007108801831603138710071088012B
:1000B80038300A128A11F5200A128A110C300A12F5
:1000C8008A11F5200A128A1101300A128A11F520C4
:1000D8000A128A1106300A128A11F5200A128A11A8
:1000E80008000A128A1121200A128A110A128A119A
:1000F80052200A128A110A128A11E5200A128A115C
:10010800F401F40A01300A128A11B5200A128A1180
:1001180001300A128A1196200A128A1192280A12AC
:100128008A110C28F500A828750884000A128A117B
:100138000D210A128A110A128A1101210A128A1142
:100148000130F4007408F507750884000A128A1152
:100158000D210A128A11003A031DB328B4289828E1
:100168000800F5007503031DBA28BB28C2287408C7
:100178007F3E0A128A11F5200A128A11023075068A
:10018800031DC728C828CF287408BF3E0A128A1141
:10019800F5200A128A110800831203138714C73046
:1001A800F200D628F20BD528D928DA2883120313AF
:1001B8008710C730F200E028F20BDF28E328E42894
:1001C800080001300A128A11F5200A128A110B3030
:1001D800F5006230F400F40BEF28F50BEF2800006F
:1001E8000800F300831203130710730888000A122B
:1001F8008A11D0200A128A110800F300831203130F
:100208000714730888000A128A11D0200A128A116A
:10021800080001308A000408840A82070034533435
:100228003134003471088A00700E8300FE0E7E0E91
:020238000900BB
:04400E00D420FF3F7C
:00000001FF
